:020000040800F2
:1000000000000320C16F00085769000865690008F7
:100010006B6900087169000877690008000000003A
:100020000000000000000000000000007D690008E2
:100030008B6900080000000099690008A7690008A2
:10004000117000081170000811700008117000088C
:100050001170000811700008B369000811700008E1
:10006000117000081170000811700008117000086C
:10007000117000081170000811700008117000085C
:10008000117000081170000811700008117000084C
:10009000117000081170000811700008117000083C
:1000A000117000081170000811700008117000082C
:1000B000117000081170000811700008117000081C
:1000C000117000081170000811700008117000080C
:1000D000C169000811700008117000081170000853
:1000E00011700008117000081170000811700008EC
:1000F00011700008117000081170000811700008DC
:1001000011700008117000081170000811700008CB
:1001100011700008117000081170000811700008BB
:1001200011700008117000081170000811700008AB
:0C01300011700008117000081170000828
:1001400010B5054C237833B9044B13B10448AFF311
:1001500000800123237010BD780000200000000003
:10016000D073000808B5034B1BB103490348AFF334
:10017000008008BD000000007C000020D073000853
:10018000034613F8012B002AFBD1181A01387047D7
:1001900081F0004102E000BF83F0004330B54FEA38
:1001A00041044FEA430594EA050F08BF90EA020FA5
:1001B0001FBF54EA000C55EA020C7FEA645C7FEA38
:1001C000655C00F0E2804FEA5454D4EB5555B8BF5B
:1001D0006D420CDD2C4480EA020281EA030382EACC
:1001E000000083EA010180EA020281EA0303362D5E
:1001F00088BF30BD11F0004F4FEA01314FF4801C31
:100200004CEA113102D0404261EB410113F0004F42
:100210004FEA03334CEA133302D0524263EB4303F9
:1002200094EA050F00F0A780A4F10104D5F1200E97
:100230000DDB02FA0EFC22FA05F2801841F10001F2
:1002400003FA0EF2801843FA05F359410EE0A5F1C6
:1002500020050EF1200E012A03FA0EFC28BF4CF0F7
:10026000020C43FA05F3C01851EBE37101F00045AD
:1002700007D54FF0000EDCF1000C7EEB00006EEBBA
:100280000101B1F5801F1BD3B1F5001F0CD3490844
:100290005FEA30004FEA3C0C04F101044FEA44529B
:1002A00012F5800F80F09A80BCF1004F08BF5FEA22
:1002B000500C50F1000041EB045141EA050130BD02
:1002C0005FEA4C0C404141EB010111F4801FA4F1A5
:1002D0000104E9D191F0000F04BF01460020B1FAFA
:1002E00081F308BF2033A3F10B03B3F120020CDA32
:1002F0000C3208DD02F1140CC2F10C0201FA0CF010
:1003000021FA02F10CE002F11402D8BFC2F1200C74
:1003100001FA02F120FA0CFCDCBF41EA0C0190402A
:10032000E41AA2BF01EB0451294330BD6FEA040473
:100330001F3C1CDA0C340EDC04F11404C4F120025E
:1003400020FA04F001FA02F340EA030021FA04F370
:1003500045EA030130BDC4F10C04C4F1200220FAC7
:1003600002F001FA04F340EA0300294630BD21FA05
:1003700004F0294630BD94F0000F83F4801306BFCB
:1003800081F480110134013D4EE77FEA645C18BFBF
:100390007FEA655C29D094EA050F08BF90EA020F56
:1003A00005D054EA000C04BF1946104630BD91EA4E
:1003B000030F1EBF0021002030BD5FEA545C05D151
:1003C0004000494128BF41F0004130BD14F5800490
:1003D0003CBF01F5801130BD01F0004545F0FE4104
:1003E00041F470014FF0000030BD7FEA645C1ABF39
:1003F000194610467FEA655C1CBF0B46024650EA70
:10040000013406BF52EA033591EA030F41F400219B
:1004100030BD00BF90F0000F04BF0021704730B521
:100420004FF4806404F132044FF000054FF00001F6
:1004300050E700BF90F0000F04BF0021704730B5B7
:100440004FF4806404F1320410F0004548BF40428C
:100450004FF000013EE700BF42004FEAE2014FEAE1
:1004600031014FEA02701FBF12F07F4393F07F4FBC
:1004700081F06051704792F0000F14BF93F07F4FEE
:10048000704730B54FF4607401F0004521F0004131
:1004900020E700BF50EA010208BF704730B54FF0B7
:1004A00000050AE050EA010208BF704730B511F0BC
:1004B000004502D5404261EB41014FF4806404F1F4
:1004C00032045FEA915C3FF4DCAE4FF003025FEA76
:1004D000DC0C18BF03325FEADC0C18BF033202EBFE
:1004E000DC02C2F1200300FA03FC20FA02F001FA58
:1004F00003FE40EA0E0021FA02F11444C1E600BFF7
:1005000070B54FF0FF0C4CF4E06C1CEA11541DBFA9
:100510001CEA135594EA0C0F95EA0C0F00F0DEF874
:100520002C4481EA030621EA4C5123EA4C5350EA59
:10053000013518BF52EA033541F4801143F48013AA
:1005400038D0A0FB02CE4FF00005E1FB02E506F03B
:100550000042E0FB03E54FF00006E1FB03569CF090
:10056000000F18BF4EF0010EA4F1FF04B6F5007F96
:1005700064F5407404D25FEA4E0E6D4146EB060608
:1005800042EAC62141EA55514FEAC52040EA5E5091
:100590004FEACE2EB4F1FD0C88BFBCF5E06F1ED83B
:1005A000BEF1004F08BF5FEA500E50F1000041EB72
:1005B000045170BD06F0004646EA010140EA02001F
:1005C00081EA0301B4EB5C04C2BFD4EB0C0541EA41
:1005D000045170BD41F480114FF0000E013C00F356
:1005E000AB8014F1360FDEBF002001F0004170BD7A
:1005F000C4F10004203C35DA0C341BDC04F1140493
:10060000C4F1200500FA05F320FA04F001FA05F21E
:1006100040EA020001F0004221F0004110EBD370EB
:1006200021FA04F642EB06015EEA430E08BF20EA17
:10063000D37070BDC4F10C04C4F1200500FA04F3BA
:1006400020FA05F001FA04F240EA020001F000414C
:1006500010EBD37041F100015EEA430E08BF20EABF
:10066000D37070BDC4F1200500FA05F24EEA020E07
:1006700020FA04F301FA05F243EA020321FA04F036
:1006800001F0004121FA04F220EA020000EBD370ED
:100690005EEA430E08BF20EAD37070BD94F0000FED
:1006A0000FD101F00046400041EB010111F4801F21
:1006B00008BF013CF7D041EA060195F0000F18BFD2
:1006C000704703F00046520043EB030313F4801F0E
:1006D00008BF013DF7D043EA0603704794EA0C0FC8
:1006E0000CEA135518BF95EA0C0F0CD050EA4106DE
:1006F00018BF52EA4306D1D181EA030101F000415B
:100700004FF0000070BD50EA410606BF1046194682
:1007100052EA430619D094EA0C0F02D150EA01368E
:1007200013D195EA0C0F05D152EA03361CBF1046CF
:1007300019460AD181EA030101F0004141F0FE416E
:1007400041F470014FF0000070BD41F0FE4141F4F2
:10075000780170BD70B54FF0FF0C4CF4E06C1CEAF2
:1007600011541DBF1CEA135594EA0C0F95EA0C0FA7
:1007700000F0A7F8A4EB050481EA030E52EA033562
:100780004FEA013100F088804FEA03334FF0805583
:1007900045EA131343EA12634FEA022245EA1115B0
:1007A00045EA10654FEA00260EF000419D4208BF61
:1007B000964244F1FD0404F5407402D25B084FEA0E
:1007C0003202B61A65EB03055B084FEA32024FF4BA
:1007D00080104FF4002CB6EB020E75EB030E22BF17
:1007E000B61A754640EA0C005B084FEA3202B6EBD7
:1007F000020E75EB030E22BFB61A754640EA5C0086
:100800005B084FEA3202B6EB020E75EB030E22BF15
:10081000B61A754640EA9C005B084FEA3202B6EB16
:10082000020E75EB030E22BFB61A754640EADC00D5
:1008300055EA060E18D04FEA051545EA16754FEA37
:1008400006164FEAC30343EA52734FEAC2025FEA55
:100850001C1CC0D111F4801F0BD141EA00014FF0E4
:1008600000004FF0004CB6E711F4801F04BF0143B5
:100870000020B4F1FD0C88BFBCF5E06F3FF6AFAED1
:10088000B5EB030C04BFB6EB020C5FEA500C50F161
:10089000000041EB045170BD0EF0004E4EEA1131E4
:1008A00014EB5C04C2BFD4EB0C0541EA045170BDEB
:1008B00041F480114FF0000E013C90E645EA060E2F
:1008C0008DE60CEA135594EA0C0F08BF95EA0C0F5D
:1008D0003FF43BAF94EA0C0F0AD150EA01347FF4A5
:1008E00034AF95EA0C0F7FF425AF104619462CE77C
:1008F00095EA0C0F06D152EA03353FF4FDAE1046DF
:10090000194622E750EA410618BF52EA43067FF42F
:10091000C5AE50EA41047FF40DAF52EA43057FF4BF
:10092000EBAE12E74FEA4102B2F1E04324BFB3F568
:10093000001CDCF1FE5C0DD901F0004C4FEAC00256
:100940004CEA5070B2F1004F40EB830008BF20F03A
:100950000100704711F0804F21D113F13872BCBFF4
:1009600001F00040704741F480114FEA5252C2F149
:100970001802C2F1200C10FA0CF320FA02F018BF92
:1009800040F001004FEAC1234FEAD32303FA0CFCE5
:1009900040EA0C0023FA02F34FEA4303CCE77FEA74
:1009A000625307D150EA01331EBF4FF0FE4040F4BE
:1009B0004000704701F0004040F0FE4040F400006D
:1009C000704700BF53B94AB9002908BF00281CBFAF
:1009D0004FF0FF314FF0FF3000F07AB9ADF1080C65
:1009E0006DE904CE00F006F8DDF804E0DDE902234D
:1009F00004B070472DE9F0478C460D460446089E2A
:100A0000002B51D18A4217466DD9B2FA82FEBEF14F
:100A1000000F0BD0CEF1200C01FA0EF520FA0CFCE1
:100A200002FA0EF74CEA050C00FA0EF44FEA174AE8
:100A3000250CBCFBFAF81FFA87F90AFB18CC45EA2B
:100A40000C4508FB09F3AB420AD9ED1908F1FF3256
:100A500080F02381AB4240F22081A8F102083D449E
:100A6000ED1AA4B2B5FBFAF00AFB105544EA0544AE
:100A700000FB09F9A14509D9E41900F1FF3380F021
:100A80000A81A14540F2078102383C44A4EB0904E5
:100A900040EA08400021002E61D024FA0EF4002321
:100AA00034607360BDE8F0878B4207D9002E54D0C4
:100AB000002186E821000846BDE8F087B3FA83F1FB
:100AC000002940F08E80AB4202D3824200F2FA80CD
:100AD000841A65EB03050120AC46002E3FD086E862
:100AE0001010BDE8F08712B90127B7FBF2F7B7FA8B
:100AF00087FEBEF1000F34D1EB1B3A0C1FFA87FCC6
:100B00000121B3FBF2F8250C02FB183345EA03453B
:100B10000CFB08F3AB4207D9ED1908F1FF3002D204
:100B2000AB4200F2D1808046ED1AA3B2B5FBF2F0E1
:100B300002FB105543EA05440CFB00FCA44507D911
:100B4000E41900F1FF3302D2A44500F2B880184640
:100B5000A4EB0C0440EA08409DE731463046BDE86E
:100B6000F087CEF1200405FA0EF307FA0EF720FA0B
:100B700004F83A0C25FA04F448EA0308B4FBF2F14D
:100B80004FEA184502FB11441FFA87FC45EA044569
:100B900001FB0CF3AB4200FA0EF409D9ED1901F197
:100BA000FF3080F08A80AB4240F2878002393D44BA
:100BB000EB1A1FFA88F5B3FBF2F002FB103345EA9B
:100BC000034500FB0CF3AB4207D9ED1900F1FF38E8
:100BD0006FD2AB426DD902383D44EB1A40EA014175
:100BE0008FE7C1F1200722FA07F88B4005FA01F4DC
:100BF00048EA030320FA07FE4FEA134CFD404EEA91
:100C0000040EB5FBFCF94FEA1E440CFB19551FFA04
:100C100083F844EA054509FB08F4AC4202FA01F204
:100C200000FA01FA08D9ED1809F1FF3043D2AC42BD
:100C300041D9A9F102091D442D1B1FFA8EFEB5FBF7
:100C4000FCF00CFB10554EEA054400FB08F8A045EB
:100C500007D9E41800F1FF3529D2A04527D9023879
:100C60001C4440EA0940A4EB0804A0FB02894C455F
:100C7000C6464D4615D312D056B1BAEB0E0364EBFF
:100C8000050404FA07F7CB401F43CC40376074607B
:100C90000021BDE8F0871846F8E69046E0E6C24538
:100CA000EAD2B8EB020E69EB03050138E4E7284607
:100CB000D7E7404691E78146BEE7014678E702382C
:100CC0003C4445E7084608E7A8F102083D442BE705
:100CD000704700BF80B48FB000AFF860B9607A6031
:100CE0003B603B689B087B634AE0FB681B683B6397
:100CF000BB681B68FB62FB685B68BB62BB685B68C8
:100D00007B62FB689B683B62BB689B68FB61FB681E
:100D1000DB68BB61BB68DB687B6197ED0C7AD7ED64
:100D20000B7A77EE277A7B68C3ED007A7B68043311
:100D300097ED0A7AD7ED097A77EE277AC3ED007A34
:100D40007B68083397ED087AD7ED077A77EE277A34
:100D5000C3ED007A7B680C3397ED067AD7ED057A00
:100D600077EE277AC3ED007AFB681033FB60BB682F
:100D70001033BB607B6810337B607B6B013B7B6314
:100D80007B6B002BB1D13B6803F003037B6313E063
:100D90007B681A1D7A60FA68111DF96092ED007A7D
:100DA000BA68111DB960D2ED007A77EE277AC3EDEB
:100DB000007A7B6B013B7B637B6B002BE8D100BF30
:100DC0003C37BD465DF8047B704780B487B000AF08
:100DD000F860B9607A603B604FF000037B617B682C
:100DE0009B083B614AE0FB681A1DFA6093ED007AAC
:100DF000BB681A1DBA60D3ED007A67EE277A97EDCB
:100E0000057A77EE277AC7ED057AFB681A1DFA6036
:100E100093ED007ABB681A1DBA60D3ED007A67EED5
:100E2000277A97ED057A77EE277AC7ED057AFB6882
:100E30001A1DFA6093ED007ABB681A1DBA60D3EDF3
:100E4000007A67EE277A97ED057A77EE277AC7ED75
:100E5000057AFB681A1DFA6093ED007ABB681A1DCB
:100E6000BA60D3ED007A67EE277A97ED057A77EED0
:100E7000277AC7ED057A3B69013B3B613B69002B53
:100E8000B1D17B6803F003033B6114E0FB681A1DDA
:100E9000FA6093ED007ABB681A1DBA60D3ED007A50
:100EA00067EE277A97ED057A77EE277AC7ED057A10
:100EB0003B69013B3B613B69002BE7D13B687A69A9
:100EC0001A6000BF1C37BD465DF8047B704780B4D4
:100ED0008BB000AFF86087ED020A79603A603B683A
:100EE0009B087B6243E0FB681B683B62FB685B68B6
:100EF000FB6197ED087AD7ED027A67EE277AC7EDA6
:100F0000087AFB689B68BB6197ED077AD7ED027A98
:100F100067EE277AC7ED077AFB68DB687B6197EDA0
:100F2000067AD7ED027A67EE277AC7ED067A97ED53
:100F3000057AD7ED027A67EE277AC7ED057A7B68E6
:100F40003A6A1A607B680433FA691A607B6808336E
:100F5000BA691A607B680C337A691A60FB681033CF
:100F6000FB607B6810337B607B6A013B7B627B6A42
:100F7000002BB8D13B6803F003037B6210E07B6871
:100F80001A1D7A60FA68111DF96092ED007AD7EDAA
:100F9000027A67EE277AC3ED007A7B6A013B7B62B7
:100FA0007B6A002BEBD100BF2C37BD465DF8047B7C
:100FB000704780B48FB000AFF860B9607A603B6072
:100FC0003B689B087B634AE0FB681B683B63BB682C
:100FD0001B68FB62FB685B68BB62BB685B687B622B
:100FE000FB689B683B62BB689B68FB61FB68DB68D6
:100FF000BB61BB68DB687B6197ED0C7AD7ED0B7A40
:1010000077EE677A7B68C3ED007A7B68043397EDEF
:101010000A7AD7ED097A77EE677AC3ED007A7B68B2
:10102000083397ED087AD7ED077A77EE677AC3ED44
:10103000007A7B680C3397ED067AD7ED057A77EE68
:10104000677AC3ED007AFB681033FB60BB6810332E
:10105000BB607B6810337B607B6B013B7B637B6B8E
:10106000002BB1D13B6803F003037B6313E07B6883
:101070001A1D7A60FA68111DF96092ED007ABA685B
:10108000111DB960D2ED007A77EE677AC3ED007A70
:101090007B6B013B7B637B6B002BE8D100BF3C3754
:1010A000BD465DF8047B704780B48BB000AF87ED20
:1010B000010AD7ED017A9FED377A67EE877AB5EEB0
:1010C000007A77EE877AC7ED087AD7ED087AFDEED9
:1010D000E77A17EE903A7B62D7ED087AF5EEC07AA0
:1010E000F1EE10FA02D57B6A013B7B627B6A07EE68
:1010F000903AF8EEE77A97ED087A77EE677AC7EDDF
:10110000087AD7ED087A9FED247A67EE877AC7EDE3
:10111000077AD7ED077AFCEEE77AC7ED007A3B88CD
:101120009BB2C3F308037B837B8B07EE903AF8EE08
:10113000677A97ED077A77EE677AC7ED057A7B8B4A
:10114000164A9B0013441B683B617B8B0133134A97
:101150009B0013441B68FB60B7EE007AD7ED057A5D
:1011600037EE677AD7ED047A27EE277AD7ED056A4E
:10117000D7ED037A66EEA77A77EE277AC7ED027A83
:10118000BB6807EE903AB0EE670A2C37BD465DF8B3
:10119000047B704783F9223E000000444C75000830
:1011A00080B48BB000AF87ED010AD7ED017AF5EE80
:1011B000C07AF1EE10FA0AD5D7ED017A9FED3A7AAE
:1011C000F4EEC77AF1EE10FA01DB7B6863E0D7ED4D
:1011D000017A9FED367A67EE877AC7ED087AD7ED08
:1011E000087AFDEEE77A17EE903A7B62D7ED017A46
:1011F000F5EEC07AF1EE10FA02D57B6A013B7B6214
:101200007B6A07EE903AF8EEE77A97ED087A77EE88
:10121000677AC7ED087AD7ED087A9FED257A67EEF1
:10122000877AC7ED077AD7ED077AFCEEE77AC7ED44
:10123000007A3B889BB2C3F308037B837B8B07EE6A
:10124000903AF8EE677A97ED077A77EE677AC7ED0E
:10125000057A7B8B174A9B0013441B683B617B8B91
:101260000133144A9B0013441B68FB60B7EE007AFD
:10127000D7ED057A37EE677AD7ED047A27EE277A2D
:10128000D7ED056AD7ED037A66EEA77A77EE277A6F
:10129000C7ED027ABB6807EE903AB0EE670A2C37CA
:1012A000BD465DF8047B7047CD024CB483F9223E05
:1012B000000000444C75000880B495B000AFF860A1
:1012C000B9607A60FB685B68FB64BB685B68BB64A1
:1012D000FB685B687B647B685B68FB62FB681B8800
:1012E0007B85BB685B883B85FB685B88FB84002350
:1012F0003B877B8DBB863B8F9B00FA6A13443B6424
:101300003B8D7B87BB685B68BB640023FB864FF02B
:101310000003FB637B6CFB64FB8C9B087B8661E0BA
:10132000BB6C1B683B623B8D9B00BA6C1344BB6477
:10133000FB6C1B68FB61FB6C5B68BB6197ED077A1C
:10134000D7ED087A67EE277A97ED0F7A77EE277A4E
:10135000C7ED0F7ABB6C1B687B613B8D9B00BA6C41
:101360001344BB6497ED067AD7ED057A67EE277ACA
:1013700097ED0F7A77EE277AC7ED0F7ABB6C1B6873
:101380003B623B8D9B00BA6C1344BB64FB6C9B6857
:10139000FB61FB6CDB68BB6197ED077AD7ED087AE0
:1013A00067EE277A97ED0F7A77EE277AC7ED0F7AF7
:1013B000BB6C1B687B613B8D9B00BA6C1344BB64A8
:1013C00097ED067AD7ED057A67EE277A97ED0F7AD3
:1013D00077EE277AC7ED0F7AFB6C1033FB647B8EB8
:1013E000013B7B867B8E002B9AD1FB8C03F00303A1
:1013F0007B8617E0FB6C1A1DFA6493ED007ABB6CD8
:10140000D3ED007A67EE277A97ED0F7A77EE277A99
:10141000C7ED0F7A3B8D9B00BA6C1344BB647B8E87
:10142000013B7B867B8E002BE4D13B6C1A1D3A641A
:10143000FA6B1A60FB8E0133FB86BB685A68FB8E21
:101440009B001344BB647B8F013B7B877B8F002B0E
:101450007FF45DAF3A8F3B8D13443B87FB8C9B0041
:101460007A6C13447B64BB8E013BBB86BB8E002B26
:101470007FF441AF0023FB7497F9133018465437BB
:10148000BD465DF8047B704780B489B000AFF8605A
:10149000B9607A604FF00003FB61BB689B08BB61D9
:1014A00046E0FB681A1DFA601B687B6197ED057AC0
:1014B000D7ED057A67EE277A97ED077A77EE277AE8
:1014C000C7ED077AFB681A1DFA601B687B6197ED10
:1014D000057AD7ED057A67EE277A97ED077A77EEEA
:1014E000277AC7ED077AFB681A1DFA601B687B61D3
:1014F00097ED057AD7ED057A67EE277A97ED077AAB
:1015000077EE277AC7ED077AFB681A1DFA601B6829
:101510007B6197ED057AD7ED057A67EE277A97ED2F
:10152000077A77EE277AC7ED077ABB69013BBB6183
:10153000BB69002BB5D1BB6803F00303BB6113E0AB
:10154000FB681A1DFA601B687B6197ED057AD7ED81
:10155000057A67EE277A97ED077A77EE277AC7ED57
:10156000077ABB69013BBB61BB69002BE8D17B6893
:10157000FA691A6000BF2437BD465DF8047B7047E6
:1015800080B582B000AF0023FB710C4A0B4B1B6887
:1015900043F480731360032000F044F9002000F04E
:1015A0000FF80346002B02D00123FB7101E005F088
:1015B000CBF9FB7918460837BD4680BD004000587E
:1015C00080B584B000AF78600023FB73174B1B68B5
:1015D000002B23D001F032FC0146144B1B684FF462
:1015E0007A72B2FBF3F3B1FBF3F3184600F04DF956
:1015F0000346002B0FD17B680F2B09D80022796896
:101600004FF0FF3000F019F9094A7B68136007E0DA
:101610000123FB7304E00123FB7301E00123FB734F
:10162000FB7B18461037BD4680BD00BF0800002078
:101630000400002080B400AF054B1A68054B1B68FE
:101640001344034A136000BFBD465DF8047B704736
:10165000A00000200800002080B400AF034B1B68EE
:101660001846BD465DF8047B704700BFA00000200F
:1016700080B400AF034B1B681846BD465DF8047B81
:10168000704700BF0400002080B485B000AF7860D0
:101690007B6803F00703FB600C4BDB68BB60BA6838
:1016A0004FF6FF031340BB60FB681A02BB6813438D
:1016B00043F0BF6343F40033BB60044ABB68D360AC
:1016C00000BF1437BD465DF8047B704700ED00E0B5
:1016D00080B400AF044BDB681B0A03F00703184615
:1016E000BD465DF8047B704700ED00E080B483B038
:1016F00000AF0346FB7197F90730002B0BDB09495C
:1017000097F907305B09FA7902F01F02012000FA0D
:1017100002F241F8232000BF0C37BD465DF8047B80
:10172000704700BF00E100E080B483B000AF034623
:101730003960FB7197F90730002B0ADB0D4997F9E7
:1017400007303A68D2B21201D2B20B4483F80023B8
:101750000AE00949FB7903F00F03043B3A68D2B26F
:101760001201D2B20B441A7600BF0C37BD465DF8A9
:10177000047B704700E100E000ED00E080B489B038
:1017800000AFF860B9607A60FB6803F00703FB61A3
:10179000FB69C3F10703042B28BF0423BB61FB696A
:1017A0000433062B02D9FB69033B00E000237B6175
:1017B0000122BB6902FA03F35A1EBB681A407B6917
:1017C0009A4001217B6901FA03F3591E7B680B40A3
:1017D000134318462437BD465DF8047B704700006C
:1017E00080B582B000AF78607B68013BB3F1807F49
:1017F00001D301230FE00A4A7B68013B53600F21AC
:101800004FF0FF30FFF790FF054B00229A60044B2A
:1018100007221A60002318460837BD4680BD00BF66
:1018200010E000E080B582B000AF78607868FFF724
:101830002BFF00BF0837BD4680BD80B586B000AF26
:101840000346B9607A60FB73FFF742FF78617A68FC
:10185000B9687869FFF792FF024697F90F30114691
:101860001846FFF761FF00BF1837BD4680BD80B541
:1018700082B000AF0346FB7197F907301846FFF7B7
:1018800035FF00BF0837BD4680BD80B582B000AFD0
:1018900078607868FFF7A4FF034618460837BD460E
:1018A00080BD80B584B000AF78600023FB737B6897
:1018B00093F82530DBB2022B05D07B680422DA6373
:1018C0000123FB7347E07B681B687A681268126823
:1018D00022F00E021A607B681B687A681268126830
:1018E00022F001021A607B689B6C7A68926C126825
:1018F00022F480721A607B681B6C7A68526C02F06A
:101900001C02012101FA02F25A607B68DB6C7A68E2
:10191000126D5A607B685B6D002B0CD07B685B6D31
:101920007A68526D126822F480721A607B689B6D2F
:101930007A68D26D5A607B68012283F825207B6823
:10194000002283F824207B689B6B002B03D07B68EC
:101950009B6B78689847FB7B18461037BD4680BD67
:1019600080B487B000AF7860396000237B614CE1C0
:101970003B681A6801217B6901FA03F31340FB609D
:10198000FB68002B00F03E813B685B68022B03D0B4
:101990003B685B68122B23D17B69DA087B680832CD
:1019A00053F822303B617B6903F007039B000F2251
:1019B00002FA03F3DB433A6913403B613B681A695F
:1019C0007B6903F007039B0002FA03F33A691343B0
:1019D0003B617B69DA087B680832396943F8221079
:1019E0007B681B683B617B695B00032202FA03F39F
:1019F000DB433A6913403B613B685B6803F00302D9
:101A00007B695B0002FA03F33A6913433B617B682D
:101A10003A691A603B685B68012B0BD03B685B68D6
:101A2000022B07D03B685B68112B03D03B685B68D7
:101A3000122B30D17B689B683B617B695B00032282
:101A400002FA03F3DB433A6913403B613B68DA680F
:101A50007B695B0002FA03F33A6913433B617B68DD
:101A60003A699A607B685B683B6101227B6902FA94
:101A700003F3DB433A6913403B613B685B681B0936
:101A800003F001027B6902FA03F33A6913433B61F5
:101A90007B683A695A607B68DB683B617B695B0005
:101AA000032202FA03F3DB433A6913403B613B68CC
:101AB0009A687B695B0002FA03F33A6913433B615E
:101AC0007B683A69DA603B685B6803F08053002BFF
:101AD00000F09880544A7B699B08023352F8233007
:101AE0003B617B6903F003039B000F2202FA03F3BF
:101AF000DB433A6913403B617B68B3F1904F19D0E7
:101B00007B684A4A934213D07B68494A93420DD07E
:101B10007B68484A934207D07B68474A934201D189
:101B2000042308E0072306E0032304E0022302E085
:101B3000012300E000237A6902F00302920093403F
:101B40003A6913433B6138497B699B0802333A6920
:101B500041F82320394BD3F880303B61FB68DB43ED
:101B60003A6913403B613B685B6803F48033002BA8
:101B700003D03A69FB6813433B61304A3B69C2F8C2
:101B800080302E4BD3F884303B61FB68DB433A69ED
:101B900013403B613B685B6803F40033002B03D0C8
:101BA0003A69FB6813433B61244A3B69C2F88430BD
:101BB000224B1B683B61FB68DB433A6913403B6186
:101BC0003B685B6803F48013002B03D03A69FB6821
:101BD00013433B61194A3B691360184B5B683B61D7
:101BE000FB68DB433A6913403B613B685B6803F485
:101BF0000013002B03D03A69FB6813433B610F4A83
:101C00003B6953607B6901337B613B681A687B6980
:101C100022FA03F3002B7FF4ABAE00BF1C37BD46A6
:101C20005DF8047B704700BF0000014000040048DD
:101C300000080048000C0048001000480008005848
:101C400080B485B000AF78600B467B807B681A69F2
:101C50007B881340002B02D00123FB7301E000239B
:101C6000FB73FB7B18461437BD465DF8047B704759
:101C700080B483B000AF78600B467B8013467B70E6
:101C80007B78002B03D07A887B689A6102E07A889F
:101C90007B689A6200BF0C37BD465DF8047B7047D5
:101CA00080B582B000AF0346FB80084BDA68FB8842
:101CB0001340002B06D0054AFB88D360FB881846EA
:101CC00004F034FA00BF0837BD4680BD0008005854
:101CD00080B400AF054A054B1B6843F48073136062
:101CE00000BFBD465DF8047B704700BF000400588C
:101CF00080B400AF044B1B6803F4C0631846BD46B4
:101D00005DF8047B704700BF0004005880B400AF4A
:101D10004FF0B0431B6803F48013B3F5801F01D16B
:101D2000012300E000231846BD465DF8047B7047A0
:101D300080B400AF4FF0B0424FF0B0431B6843F4A3
:101D40008023136000BFBD465DF8047B704780B4FC
:101D500000AF4FF0B0424FF0B0431B6823F4802334
:101D6000136000BFBD465DF8047B704780B400AFD0
:101D70004FF0B0424FF0B0431B6843F48033136020
:101D800000BFBD465DF8047B704780B400AF4FF0E4
:101D9000B0424FF0B0431B6823F48033136000BFA0
:101DA000BD465DF8047B704780B400AF4FF0B04390
:101DB0001B6803F40033B3F5003F01D1012300E0B9
:101DC00000231846BD465DF8047B704780B400AF21
:101DD0004FF0B0424FF0B0431B6843F48073136080
:101DE00000BFBD465DF8047B704780B400AF4FF084
:101DF000B0424FF0B0431B6823F48073136000BF00
:101E0000BD465DF8047B704780B400AF4FF0B0432F
:101E10001B6803F48063B3F5806F01D1012300E0F8
:101E200000231846BD465DF8047B704780B483B03C
:101E300000AF78604FF0B0414FF0B0435B6823F0E3
:101E4000FE427B681B0613434B6000BF0C37BD4648
:101E50005DF8047B704780B400AF4FF0B0424FF0A4
:101E6000B043D3F8983043F00103C2F8983000BF74
:101E7000BD465DF8047B704780B400AF4FF0B042C0
:101E80004FF0B043D3F8983023F00103C2F89830F4
:101E900000BFBD465DF8047B704780B400AF4FF0D3
:101EA000B043D3F8983003F00203022B01D1012391
:101EB00000E000231846BD465DF8047B704780B4FF
:101EC00000AF4FF0B0424FF0B043D3F8903043F042
:101ED0000103C2F8903000BFBD465DF8047B704737
:101EE00080B400AF4FF0B0424FF0B043D3F8903021
:101EF00023F00103C2F8903000BFBD465DF8047BBB
:101F0000704780B400AF4FF0B0424FF0B043D3F809
:101F1000903043F00403C2F8903000BFBD465DF836
:101F2000047B704780B400AF4FF0B0424FF0B04335
:101F3000D3F8903023F00403C2F8903000BFBD46C0
:101F40005DF8047B704780B400AF4FF0B043D3F826
:101F5000903003F00203022B01D1012300E00023A3
:101F60001846BD465DF8047B704780B400AF4FF063
:101F7000B0424FF0B043D3F8943043F00103C2F8BD
:101F8000943000BFBD465DF8047B704780B400AF5D
:101F90004FF0B0424FF0B043D3F8943023F0010338
:101FA000C2F8943000BFBD465DF8047B704780B432
:101FB00000AF4FF0B043D3F8943003F00203022B8C
:101FC00001D1012300E000231846BD465DF8047BE3
:101FD000704780B400AF4FF0B0424FF0B043D3F839
:101FE000943043F00403C2F8943000BFBD465DF85E
:101FF000047B704780B400AF4FF0B0424FF0B04365
:10200000D3F8943023F00403C2F8943000BFBD46E7
:102010005DF8047B704780B400AF4FF0B043D3F855
:10202000943003F00803082B01D1012300E00023C2
:102030001846BD465DF8047B704780B483B000AF9E
:1020400078604FF0B0414FF0B043D3F8943023F4B0
:1020500070627B681B021343C1F8943000BF0C37D9
:10206000BD465DF8047B704780B400AF4FF0B042CE
:102070004FF0B0431B6843F00103136000BFBD463F
:102080005DF8047B704780B400AF4FF0B0424FF072
:10209000B0431B6823F00103136000BFBD465DF829
:1020A000047B704780B400AF4FF0B0431B6803F06F
:1020B0000203022B01D1012300E000231846BD4694
:1020C0005DF8047B704780B483B000AF78604FF058
:1020D000B0414FF0B0431B6823F0F0027B6813431C
:1020E0000B6000BF0C37BD465DF8047B704780B4C1
:1020F00083B000AF4FF0B0431B6803F0F0037B6088
:102100007B68B02B01D9B0237B607B6818460C3705
:10211000BD465DF8047B704780B483B000AF786043
:102120004FF0B0414FF0B0435B6823F47F427B68CF
:102130001B0213434B6000BF0C37BD465DF8047BA8
:10214000704780B483B000AF78604FF0B0414FF07B
:10215000B0439B6823F003027B6813438B6000BF8E
:102160000C37BD465DF8047B704780B400AF4FF07C
:10217000B0439B6803F00C031846BD465DF8047B32
:10218000704780B483B000AF78604FF0B0414FF03B
:10219000B0439B6823F0F0027B6813438B6000BF61
:1021A0000C37BD465DF8047B704780B483B000AF48
:1021B00078604FF0B0414FF0B043D3F8083123F0CE
:1021C000F0027B681343C1F8083100BF0C37BD46ED
:1021D0005DF8047B704780B483B000AF78604FF047
:1021E000B0414FF0B043D3F8083123F00F027B68C1
:1021F0001B091343C1F8083100BF0C37BD465DF819
:10220000047B704780B483B000AF78604FF0B0417A
:102210004FF0B0439B6823F4E0627B6813438B600C
:1022200000BF0C37BD465DF8047B704780B483B0B7
:1022300000AF78604FF0B0414FF0B0439B6823F49B
:1022400060527B6813438B6000BF0C37BD465DF85E
:10225000047B704780B400AF4FF0B0439B6803F03D
:10226000F0031846BD465DF8047B704780B400AFAC
:102270004FF0B043D3F808311B0103F0F0031846C8
:10228000BD465DF8047B704780B400AF4FF0B043AB
:102290009B6803F4E0631846BD465DF8047B704715
:1022A00080B400AF4FF0B0439B6803F4605318460E
:1022B000BD465DF8047B704780B400AF4FF0B0427C
:1022C0004FF0B0431B6843F08073136000BFBD46FE
:1022D0005DF8047B704780B400AF4FF0B0424FF020
:1022E000B0431B6823F08073136000BFBD465DF8E8
:1022F000047B704780B400AF4FF0B0431B6803F01D
:102300000073B3F1007F01D1012300E000231846E0
:10231000BD465DF8047B704780B400AF4FF0B0431A
:10232000DB681B0A03F07F031846BD465DF8047B9B
:10233000704780B400AF4FF0B043DB6803F06043F8
:102340001846BD465DF8047B704780B400AF4FF07F
:10235000B043DB6803F070031846BD465DF8047BAC
:10236000704780B400AF4FF0B043DB6803F0030365
:102370001846BD465DF8047B704780B400AF4FF04F
:10238000B0439B6803F48033B3F5803F01D1012350
:1023900000E000231846BD465DF8047B704780B41A
:1023A00000AF4FF0B043D3F8083103F40033B3F576
:1023B000003F01D1012300E000231846BD465DF82F
:1023C000047B704780B400AF4FF0B043D3F80831BE
:1023D00003F48033B3F5803F01D1012300E00023F3
:1023E0001846BD465DF8047B704780B400AF4FF0DF
:1023F000B0439B6803F40033B3F5003F01D10123E0
:1024000000E000231846BD465DF8047B704780B4A9
:1024100000AF4FF0B0439B6803F48023B3F5802FE7
:1024200001D1012300E000231846BD465DF8047B7E
:102430007047000090B58BB000AF78607B68002BD0
:1024400001D101234BE37B681B6803F02003002BC1
:1024500000F08F80FFF789FE7862FFF782FF386215
:102460007B6A002B05D07B6A0C2B49D13B6A012B80
:1024700046D1FFF717FE0346002B05D07B68DB69CA
:10248000002B01D101232AE37B685C6AFFF72FFE52
:1024900003469C4214D97B685B6A184600F00EFD27
:1024A0000346002B01D0012319E37B685B6A1846C1
:1024B000FFF709FE7B681B6A1846FFF72DFE13E045
:1024C0007B685B6A1846FFF7FEFD7B681B6A18464F
:1024D000FFF722FE7B685B6A184600F0EFFC0346BC
:1024E000002B01D00123FAE204F0F6FAB44B1B688A
:1024F0001846FFF765F80346002B39D00123EEE2BA
:102500007B68DB69002B1ED0FFF7AEFDFFF7A4F858
:10251000F86108E0FFF7A0F80246FB69D31A022B26
:1025200001D90323DBE2FFF7BDFD0346002BF1D009
:102530007B685B6A1846FFF7C6FD7B681B6A184616
:10254000FFF7EAFD15E0FFF79EFDFFF785F8F8615C
:1025500008E0FFF781F80246FB69D31A022B01D984
:102560000323BCE2FFF79EFD0346002BF1D100E000
:1025700000BF7B681B6803F00103002B5AD0FFF7F4
:10258000F4FDB861FFF7EDFE7861BB69082B05D05B
:10259000BB690C2B0DD17B69032B0AD1FFF704FC1F
:1025A0000346002B45D07B685B68002B41D101239B
:1025B00095E27B685B68B3F5803F02D1FFF7D6FBFD
:1025C0000DE07B685B68B3F5A02F04D1FFF7B0FB8B
:1025D000FFF7CCFB03E0FFF7D8FBFFF7B8FB7B6806
:1025E0005B68002B12D0FFF737F8F86108E0FFF7BF
:1025F00033F80246FB69D31A642B01D903236EE238
:10260000FFF7D2FB0346002BF1D013E0FFF724F8CD
:10261000F86108E0FFF720F80246FB69D31A642B43
:1026200001D903235BE2FFF7BFFB0346002BF1D187
:1026300000E000BF7B681B6803F00203002B51D051
:10264000FFF793FD3861FFF78CFEF8603B69042BC0
:1026500005D03B690C2B13D1FB68022B10D1FFF77F
:10266000D3FB0346002B05D07B68DB68002B01D130
:10267000012334E27B681B691846FFF7D7FB31E082
:102680007B68DB68002B19D0FFF7A0FBFEF7E4FFA7
:10269000F86108E0FEF7E0FF0246FB69D31A022B5F
:1026A00001D903231BE2FFF7AFFB0346002BF1D058
:1026B0007B681B691846FFF7B9FB13E0FFF795FB32
:1026C000FEF7CAFFF86108E0FEF7C6FF0246FB69A5
:1026D000D31A022B01D9032301E2FFF795FB03462E
:1026E000002BF1D17B681B6803F00803002B06D197
:1026F0007B681B6803F01003002B00F0A2807B684E
:102700005B69002B75D07B681B6803F01003002BFE
:1027100046D0FFF74CFC0346002B13D1FFF725FCF6
:10272000FEF79AFFF86108E0FEF796FF0246FB69A4
:10273000D31A022B01D90323D1E1FFF738FC03465A
:10274000002BF1D0FFF745FCFEF786FFF86108E0AB
:10275000FEF782FF0246FB69D31A032B01D903233C
:10276000BDE1FFF758FC0346002BF1D07B689B6965
:102770001846FFF762FCFFF709FCFEF76DFFF861F2
:1027800008E0FEF769FF0246FB69D31A022B01D964
:102790000323A4E1FFF70BFC0346002BF1D150E02B
:1027A000FFF7E3FBFEF758FFF8610BE0FEF754FF7D
:1027B0000246FB69D31A022B04D903238FE100BF21
:1027C00004000020FFF7F3FB0346002BEED0FFF7D9
:1027D00011FC08E0FEF740FF0246FB69D31A032B09
:1027E00001D903237BE1FFF716FC0346002BF1D14F
:1027F00027E0FFF7FFFBFEF72FFFF86108E0FEF789
:102800002BFF0246FB69D31A032B01D9032366E190
:10281000FFF701FC0346002BF1D1FFF7B7FBFEF7F2
:102820001BFFF86108E0FEF717FF0246FB69D31AA9
:10283000022B01D9032352E1FFF7B9FB0346002B1A
:10284000F1D17B681B6803F00403002B5BD0A64B1F
:102850001B6803F48073002B14D1FFF739FAFEF7DD
:10286000FBFEF86108E0FEF7F7FE0246FB69D31AAB
:10287000022B01D9032332E19B4B1B6803F48073C5
:10288000002BF0D07B689B68012B02D1FFF717FB70
:102890000CE07B689B68052B04D1FFF732FBFFF748
:1028A0000EFB03E0FFF71CFBFFF73CFB7B689B681C
:1028B000002B14D0FEF7D0FEF8610AE0FEF7CCFE44
:1028C0000246FB69D31A41F28832934201D90323AD
:1028D00005E1FFF738FB0346002BEFD013E0FEF7CE
:1028E000BBFEF8610AE0FEF7B7FE0246FB69D31AA9
:1028F00041F28832934201D90323F0E0FFF723FB32
:102900000346002BEFD17B681B6803F04003002BCC
:102910002CD07B689B6A002B14D0FFF79CFAFEF743
:102920009BFEF86108E0FEF797FE0246FB69D31AAA
:10293000022B01D90323D2E0FFF7AFFA0346002BA5
:10294000F1D013E0FFF798FAFEF786FEF86108E091
:10295000FEF782FE0246FB69D31A022B01D903233C
:10296000BDE0FFF79AFA0346002BF1D17B68DB6AE2
:10297000002B00F0B380FFF7F8FB03460C2B76D05A
:102980007B68DB6A022B4BD1FFF7A5FCFEF764FEE8
:10299000F86108E0FEF760FE0246FB69D31A022BDD
:1029A00001D903239BE0FFF7A5FC0346002BF1D1DF
:1029B0004FF0B0404FF0B043DA684C4B13407A68A8
:1029C000116B7A68526B11437A68926B1202114351
:1029D0007A68D26B11437A68126C11437A68526C30
:1029E0000A431343C360FFF767FC4FF0B0424FF058
:1029F000B043DB6843F08053D360FEF72DFEF861EF
:102A000008E0FEF729FE0246FB69D31A022B01D922
:102A1000032364E0FFF76EFC0346002BF1D05DE07A
:102A2000FFF759FC4FF0B0424FF0B043DB6823F0A2
:102A30000303D3604FF0B0424FF0B043DB6823F0A4
:102A4000885323F48033D360FEF706FEF86108E074
:102A5000FEF702FE0246FB69D31A022B01D90323BB
:102A60003DE0FFF747FC0346002BF1D136E07B68E1
:102A7000DB6A012B01D1012331E04FF0B043DB6869
:102A8000BB60BB6803F003027B681B6B9A4223D1D7
:102A9000BB6803F070027B685B6B9A421CD1BB6819
:102AA0001B0A03F07F027B689B6B9A4214D1BB68C0
:102AB00003F478127B68DB6B9A420DD1BB6803F09C
:102AC00060627B681B6C9A4206D1BB6803F060426F
:102AD0007B685B6C9A4201D0012300E0002318461A
:102AE0002C37BD4690BD00BF000400588C80C1113A
:102AF00080B584B000AF786039607B68002B01D16D
:102B000001232AE1974B1B6803F007023B689A42B6
:102B10001BD29449934B1B6823F007023B68134375
:102B20000B60FEF799FDF86008E0FEF795FD0246A0
:102B3000FB68D31A022B01D903230EE1894B1B68D2
:102B400003F007023B689A42EFD17B681B6803F0F1
:102B50000203002B16D07B689B681846FFF711FB19
:102B6000FEF77AFDF86008E0FEF776FD0246FB68A6
:102B7000D31A022B01D90323EFE0FFF7FEFB034634
:102B8000002BF1D07B681B6803F02003002B16D0CC
:102B90007B685B691846FFF708FBFEF75DFDF86090
:102BA00008E0FEF759FD0246FB68D31A022B01D953
:102BB0000323D2E0FFF7F3FB0346002BF1D07B6841
:102BC0001B6803F04003002B16D07B689B691846F6
:102BD000FFF701FBFEF740FDF86008E0FEF73CFD63
:102BE0000246FB68D31A022B01D90323B5E0FFF795
:102BF000E9FB0346002BF1D07B681B6803F004035C
:102C0000002B16D07B68DB681846FFF7FBFAFEF74F
:102C100023FDF86008E0FEF71FFD0246FB68D31AAB
:102C2000022B01D9032398E0FFF7DFFB0346002BBB
:102C3000F1D07B681B6803F00803002B17D07B687A
:102C40001B69DB001846FFF7F1FAFEF705FDF86097
:102C500008E0FEF701FD0246FB68D31A022B01D9FA
:102C600003237AE0FFF7D3FB0346002BF1D07B6808
:102C70001B6803F00103002B43D07B685B68022BC9
:102C800006D1FFF791F80346002B1ED1012364E023
:102C90007B685B68032B06D1FFF72CFB0346002BF8
:102CA00013D1012359E07B685B68002B06D1FFF745
:102CB000F9F90346002B08D101234EE0FFF7A4F8F1
:102CC0000346002B01D1012347E07B685B6818466F
:102CD000FFF737FAFEF7C0FCF8600AE0FEF7BCFC2D
:102CE0000246FB68D31A41F28832934201D903238A
:102CF00033E0FFF73AFA02467B685B689B009A4232
:102D0000ECD1184B1B6803F007023B689A421BD9B1
:102D10001449144B1B6823F007023B6813430B60F4
:102D2000FEF79AFCF86008E0FEF796FC0246FB68A6
:102D3000D31A022B01D903230FE00A4B1B6803F0BF
:102D400007023B689A42EFD103F0C6FEFEF790FC03
:102D500003461846FEF734FC034618461037BD46B6
:102D600080BD00BF0040005890B585B000AFFFF7B0
:102D7000FCF978607B68002B0AD1FFF7B8F90346AD
:102D80001B0903F00F032A4A52F82330FB604AE084
:102D90007B68042B02D1274BFB6044E07B68082B47
:102DA0000AD1FEF7B3FF0346012B02D1214BFB6092
:102DB00039E0214BFB6036E0FFF7D3FA38603B681F
:102DC000022B02D0032B03D00DE01A4BBB6015E0A1
:102DD000FEF79CFF0346012B02D1164BBB600DE0B2
:102DE000154BBB600AE0FFF782F903461B0903F0AD
:102DF0000F030F4A52F82330BB6000BFFFF78CFA75
:102E00000246BB6803FB02F4FFF79FFA03461B0967
:102E10000133B4FBF3F4FFF78CFA03465B0F013385
:102E2000B4FBF3F3FB60FB6818461437BD4690BD56
:102E3000B87D00080024F4000048E80198B500AF10
:102E4000FFF792FF0446FFF705FA03461B0903F05C
:102E50000F03034A52F82330B4FBF3F3184698BD2E
:102E6000587D000898B500AFFFF7E8FF0446FFF76C
:102E70000BFA03461B0A03F00703044A52F82330F7
:102E800003F01F0324FA03F3184698BD987D000849
:102E900098B500AFFFF7D2FF0446FFF701FA0346EB
:102EA000DB0A03F00703044A52F8233003F01F0340
:102EB00024FA03F3184698BD987D000890B585B0B4
:102EC00000AF78607B68B02B03D9154BDB6AFB60E1
:102ED00007E07B681B0903F00F03114A52F8233007
:102EE000FB60FFF7C3F903461B0903F00F030D4A0C
:102EF00052F82330FA68B2FBF3F3BB60BB680A4AAE
:102F0000A2FB03239C0CFEF7F3FE03461946204662
:102F100000F00CF8034618461437BD4690BD00BFBC
:102F2000B87D0008587D000883DE1B4390B593B040
:102F300000AF78603960394B07F128040FCB84E883
:102F40000F00374A07F11C0307CA83E80700354B17
:102F500007F10C040FCB84E80F0000237B643B686F
:102F6000B3F5007F1CD100233B6415E03B6C9B0054
:102F700007F14802134453F8202C7B689A4208D387
:102F80003B6C9B0007F14802134453F83C3C7B64C4
:102F900022E03B6C01333B643B6C032BE6D91BE026
:102FA0000023FB6315E0FB6B9B0007F14802134411
:102FB00053F82C2C7B689A4208D3FB6B9B0007F1DB
:102FC0004802134453F83C3C7B6405E0FB6B01333F
:102FD000FB63FB6B022BE6D91349134B1B6823F0F1
:102FE00007027B6C13430B60FEF736FBB86308E007
:102FF000FEF732FB0246BB6BD31A022B01D9032327
:1030000007E0094B1B6803F007027B6C9A42EFD183
:10301000002318464C37BD4690BD00BFE87300083A
:10302000F8730008047400080040005880B400AF32
:103030004FF0B043D3F8903003F00103012B01D1DE
:10304000012300E000231846BD465DF8047B70476D
:1030500080B400AF4FF0B043D3F8903003F00203D8
:10306000022B01D1012300E000231846BD465DF884
:10307000047B704780B483B000AF78604FF0B041FC
:103080004FF0B043D3F8943023F440427B681343AD
:10309000C1F8943000BF0C37BD465DF8047B704723
:1030A00080B483B000AF78604FF0B0414FF0B043D0
:1030B0005B6A23F003027B6813434B6200BF0C374B
:1030C000BD465DF8047B704780B483B000AF786084
:1030D0004FF0B0414FF0B0435B6A23F030027B68A1
:1030E00013434B6200BF0C37BD465DF8047B70474D
:1030F00080B483B000AF78604FF0B0414FF0B04380
:10310000D3F8883023F003027B681343C1F888307A
:1031100000BF0C37BD465DF8047B704780B483B0B8
:1031200000AF78604FF0B0414FF0B043D3F8883033
:1031300023F440627B681343C1F8883000BF0C372A
:10314000BD465DF8047B704780B483B000AF786003
:103150004FF0B0414FF0B043D3F888207B681B0993
:1031600003F47F23DB431A407B681B0103F47F23B6
:103170001343C1F8883000BF0C37BD465DF8047BAF
:10318000704780B483B000AF78604FF0B0414FF02B
:10319000B043D3F888207B681B0C1B04DB431A4028
:1031A0007B681B041343C1F8883000BF0C37BD4651
:1031B0005DF8047B704780B483B000AF78604FF057
:1031C000B0414FF0B043D3F8883023F440027B681D
:1031D0001343C1F8883000BF0C37BD465DF8047B4F
:1031E000704780B483B000AF78604FF0B0414FF0CB
:1031F000B043D3F8883023F040427B681343C1F8D2
:10320000883000BF0C37BD465DF8047B704780B442
:1032100083B000AF78604FF0B0414FF0B043D3F8C7
:10322000883023F040627B681343C1F8883000BFC8
:103230000C37BD465DF8047B704780B582B000AFA7
:1032400078607868FFF7E3FF00BF0837BD4680BDB0
:1032500080B483B000AF78604FF0B0414FF0B0431E
:10326000D3F8883023F040527B681343C1F888308C
:1032700000BF0C37BD465DF8047B704780B483B057
:1032800000AF78604FF0B0414FF0B043D3F89030CA
:1032900023F440727B681343C1F8903000BF0C37B1
:1032A000BD465DF8047B704780B400AF4FF0B0437B
:1032B000D3F8903003F440731846BD465DF8047BA4
:1032C000704780B400AF4FF0B0424FF0B043D3F836
:1032D000903043F48033C2F8903000BFBD465DF8B3
:1032E000047B704780B400AF4FF0B0424FF0B04362
:1032F000D3F8903023F48033C2F8903000BFBD463D
:103300005DF8047B704780B400AF4FF0B0424FF0DF
:10331000B0431B6843F08063136000BFBD465DF897
:10332000047B704780B400AF4FF0B0424FF0B04321
:103330001B6823F08063136000BFBD465DF8047B0B
:10334000704780B400AF4FF0B0431B6803F00063D8
:10335000B3F1006F01D1012300E000231846BD4600
:103360005DF8047B704780B588B000AF78600023BB
:10337000FB770023BB777B681B6803F04003002BBF
:1033800033D07B681B6BB3F5800F0CD0B3F5800F87
:1033900002D8002B10D017E0B3F5000F17D0B3F50B
:1033A000400F16D010E04FF0B0424FF0B043DB6852
:1033B00043F48033D3600DE07B680433184600F09B
:1033C00047F90346FB7705E00123FB7702E000BFE6
:1033D00000E000BFFB7F002B05D17B681B6B18460C
:1033E000FFF7E9FE01E0FB7FBB777B681B6803F416
:1033F0000063002B46D0FFF757FFB8617B681A6C5B
:10340000BB699A423CD0FEF763FCBB69002B05D137
:103410007B681B6C1846FFF731FF2EE04FF0B0437E
:10342000D3F890307B61FFF74CFFFFF75BFF7B69C0
:1034300023F440727B681B6C13437B614FF0B042F6
:103440007B69C2F89030FFF7F1FD0346012B14D1E0
:10345000FEF702F938610BE0FEF7FEF802463B6921
:10346000D31A41F28832934202D90323FB7704E056
:10347000FFF7EEFD0346012BEED1FB7FBB7701E0AA
:10348000FB7FBB777B681B6803F00103002B04D034
:103490007B689B691846FFF72BFE7B681B6803F06F
:1034A0000203002B04D07B68DB691846FFF736FE69
:1034B0007B681B6803F01003002B04D07B689B6AB9
:1034C0001846FFF75EFE7B681B6803F02003002BA5
:1034D00004D07B68DB6A1846FFF753FE7B681B68E5
:1034E00003F00403002B04D07B681B6A1846FFF727
:1034F0002BFE7B681B6803F00803002B04D07B685D
:103500005B6A1846FFF720FE7B681B6803F4807334
:10351000002B22D07B685B6B1846FFF78EFE7B6822
:103520005B6BB3F1006F07D14FF0B0424FF0B04387
:10353000DB6843F08073D3607B685B6BB3F1806FB3
:103540000BD17B680433184600F0DDF80346FB77A7
:10355000FB7F002B01D0FB7FBB777B681B6803F4EC
:103560000073002B2BD07B689B6BB3F1804F08D08E
:103570007B689B6BB3F1004F03D07B689B6B002B88
:1035800005D17B689B6B1846FFF72BFE0AE07B6832
:103590009B6B23F08053FB600020FFF722FEF8684E
:1035A000FFF735FE7B689B6BB3F1C05F07D14FF02F
:1035B000B0424FF0B043DB6843F08073D3607B6868
:1035C0001B6803F48063002B22D07B68DB6B1846FA
:1035D000FFF73EFE7B68DB6BB3F1005F07D14FF076
:1035E000B0424FF0B043DB6843F48033D3607B6874
:1035F000DB6BB3F1805F0BD17B680433184600F0BE
:10360000DDF80346FB77FB7F002B01D0FB7FBB7708
:103610007B681B6803F48053002B04D07B685B6CD1
:103620001846FFF727FD7B681B6803F40053002B47
:1036300009D07B68DB6C1846FFF746FD7B689B6C06
:103640001846FFF72DFDBB7F18462037BD4680BDCD
:1036500080B584B000AF78600023FB73FFF762FE93
:10366000FDF7FAFFB86009E0FDF7F6FF0246BB6818
:10367000D31A022B02D90323FB7304E0FFF761FE88
:103680000346002BF0D1FB7B002B37D14FF0B0412C
:103690004FF0B0431B6923F4FE427B681B681B029A
:1036A00013430B614FF0B0414FF0B0431B6923F45B
:1036B00078127B685B6813430B61FFF724FEFDF70C
:1036C000CBFFB86009E0FDF7C7FF0246BB68D31A1D
:1036D000022B02D90323FB7304E0FFF732FE0346FB
:1036E000012BF0D1FB7B002B08D14FF0B0414FF004
:1036F000B0431A697B681B6913430B61FB7B184657
:103700001037BD4680BD80B584B000AF786000231F
:10371000FB73FFF707FEFDF79FFFB86009E0FDF7B9
:103720009BFF0246BB68D31A022B02D90323FB730B
:1037300004E0FFF706FE0346002BF0D1FB7B002BD5
:1037400037D14FF0B0414FF0B0431B6923F4FE4234
:103750007B681B681B0213430B614FF0B0414FF0B5
:10376000B0431B6923F060627B689B6813430B6165
:10377000FFF7C9FDFDF770FFB86009E0FDF76CFFCA
:103780000246BB68D31A022B02D90323FB7304E061
:10379000FFF7D7FD0346012BF0D1FB7B002B08D1AF
:1037A0004FF0B0414FF0B0431A697B681B69134377
:1037B0000B61FB7B18461037BD4680BD80B584B0D9
:1037C00000AF78600023FB73FFF7ACFDFDF744FF0B
:1037D000B86009E0FDF740FF0246BB68D31A022B30
:1037E00002D90323FB7304E0FFF7ABFD0346002B74
:1037F000F0D1FB7B002B37D14FF0B0414FF0B043FD
:103800001B6923F4FE427B681B681B0213430B6198
:103810004FF0B0414FF0B0431B6923F060427B682A
:10382000DB6813430B61FFF76EFDFDF715FFB86012
:1038300009E0FDF711FF0246BB68D31A022B02D93B
:103840000323FB7304E0FFF77CFD0346012BF0D15B
:10385000FB7B002B08D14FF0B0414FF0B0431A6909
:103860007B681B6913430B61FB7B18461037BD4611
:1038700080BD80B582B000AF78607B68002B01D13D
:1038800001231DE07B6893F83D30DBB2002B06D1AD
:103890007B68002283F83C20786803F0FFF97B689E
:1038A000022283F83D207B681A687B68043319463E
:1038B000104600F033F87B68012283F83D20002396
:1038C00018460837BD4680BD80B485B000AF78602B
:1038D0007B68022283F83D207B681B689A680E4B48
:1038E0001340FB60FB68062B0BD0FB68B3F5803FF1
:1038F00007D07B681B687A681268126842F0010280
:103900001A607B68012283F83D2000231846143793
:10391000BD465DF8047B70470700010080B485B0A8
:1039200000AF786039607B681B68FB607B682A4A5F
:10393000934203D07B68B3F1804F08D1FB6823F03A
:103940007003FB603B685B68FA681343FB607B684D
:10395000214A93420BD07B68B3F1804F07D07B683C
:103960001E4A934203D07B681D4A934208D1FB68EC
:1039700023F44073FB603B68DB68FA681343FB6029
:10398000FB6823F080023B685B691343FB607B6844
:10399000FA681A603B689A687B68DA623B681A6862
:1039A0007B689A627B680C4A934207D07B680B4A1B
:1039B000934203D07B680A4A934203D13B681A6959
:1039C0007B681A637B6801225A6100BF1437BD46C9
:1039D0005DF8047B704700BF002C014000440140AB
:1039E0000048014080B483B000AF78604FF0B0432E
:1039F000D3F888207B68134018460C37BD465DF825
:103A0000047B704780B483B000AF78604FF0B04360
:103A1000D3F888207B68134018460C37BD465DF804
:103A2000047B704780B582B000AF78607B68002B64
:103A300001D1012342E07B68D3F88030002B06D10E
:103A40007B68002283F87C20786803F0B9F97B68F2
:103A50002422C3F880207B681B687A681268126889
:103A600022F001021A60786800F056FA0346012B32
:103A700001D1012322E07B689B6A002B02D0786889
:103A800001F09AFA7B681B687A681268526822F41F
:103A900090425A607B681B687A681268926822F0CC
:103AA0002A029A607B681B687A681268126842F082
:103AB00001021A60786801F021FB034618460837B6
:103AC000BD4680BD80B58AB002AFF860B9603B608A
:103AD0001346FB80FB68D3F88030202B40F08280B7
:103AE000BB68002B02D0FB88002B01D101237AE0B8
:103AF000FB6893F87C30012B01D1022373E0FB6853
:103B0000012283F87C20FB680022C3F88820FB6830
:103B10002122C3F88020FDF79FFD7861FB68FA88B9
:103B2000A3F85420FB68FA88A3F85620FB689B682A
:103B3000B3F5805F08D1FB681B69002B04D100231B
:103B4000FB61BB68BB6103E0BB68FB610023BB6139
:103B50002BE03B6800937B6900228021F86801F02C
:103B600015FB0346002B01D003233CE0FB69002B2F
:103B70000AD1FB681B68BA691288C2F308029A620C
:103B8000BB690233BB6107E0FB681B68FA69127806
:103B90009A62FB690133FB61FB68B3F856309BB254
:103BA000013B9AB2FB68A3F85620FB68B3F8563085
:103BB0009BB2002BCDD13B6800937B690022402152
:103BC000F86801F0E3FA0346002B01D003230AE072
:103BD000FB682022C3F88020FB68002283F87C2049
:103BE000002300E0022318462037BD4680BD0000B8
:103BF00080B588B000AF78607B681B68DB69FB61CB
:103C00007B681B681B68BB617B681B689B687B616A
:103C1000FA6940F60F0313403B613B69002B18D152
:103C2000FB6903F02003002B13D0BB6903F02003D2
:103C3000002B04D17B6903F08053002B09D07B68F3
:103C4000DB6E002B00F045817B68DB6E786898475F
:103C50003FE13B69002B00F0E8807A69A14B1340FB
:103C6000002B05D1BA69A04B1340002B00F0DD807A
:103C7000FB6903F00103002B10D0BB6903F48073D0
:103C8000002B0BD07B681B6801221A627B68D3F87B
:103C9000883043F001027B68C3F88820FB6903F099
:103CA0000203002B10D07B6903F00103002B0BD023
:103CB0007B681B6802221A627B68D3F8883043F065
:103CC00004027B68C3F88820FB6903F00403002B1F
:103CD00010D07B6903F00103002B0BD07B681B68BD
:103CE00004221A627B68D3F8883043F002027B68B2
:103CF000C3F88820FB6903F00803002B15D0BB69CB
:103D000003F02003002B04D17A69764B1340002B7B
:103D10000BD07B681B6808221A627B68D3F8883056
:103D200043F008027B68C3F88820FB6903F4006352
:103D3000002B11D0BB6903F08063002B0CD07B6893
:103D40001B684FF400621A627B68D3F8883043F036
:103D500020027B68C3F888207B68D3F88830002B6A
:103D600000F0B980FB6903F02003002B11D0BB6980
:103D700003F02003002B04D17B6903F08053002B58
:103D800007D07B68DB6E002B03D07B68DB6E786826
:103D900098477B68D3F88830FB607B681B689B681A
:103DA00003F04003402B04D0FB6803F02803002BF2
:103DB00031D0786801F06AFA7B681B689B6803F071
:103DC0004003402B23D17B681B687A681268926895
:103DD00022F040029A607B689B6F002B13D07B68B7
:103DE0009B6F424A9A637B689B6F1846FDF759FDAB
:103DF0000346002B17D07B689B6F9B6B7A68926F92
:103E0000104698470FE0786800F07CF80BE078687F
:103E100000F078F807E0786800F074F87B6800221A
:103E2000C3F8882057E000BF55E0FB6903F4801316
:103E3000002B0DD07B6903F48003002B08D07B6836
:103E40001B684FF480121A62786801F072FA45E03C
:103E5000FB6903F08003002B12D0BB6903F08003E1
:103E6000002B04D17B6903F40003002B08D07B688E
:103E70001B6F002B31D07B681B6F786898472CE054
:103E8000FB6903F04003002B08D0BB6903F040033B
:103E9000002B03D0786801F032FA1FE0FB6903F4CD
:103EA0000003002B08D0BB6903F08043002B03D034
:103EB000786801F052FA11E0FB6903F08073002B7F
:103EC0000CD0BB69002B09DA786801F03CFA00BF1E
:103ED00004E000BF02E000BF00E000BF2037BD46A5
:103EE00080BD00BF0100001020010004D352000873
:103EF00080B483B000AF786000BF0C37BD465DF87A
:103F0000047B704780B483B000AF786000BF0C378B
:103F1000BD465DF8047B70472DE9F0438BB000AFE0
:103F200078600023FB610023FB7600237B617B68C4
:103F30009A687B681B691A437B685B691A437B68D4
:103F4000DB6913437B627B685B6E7A6A13437B6237
:103F50007B681A687B681B681968A44B0B40796AF8
:103F60000B4313607B681B687A681268526822F4FE
:103F700040517A68D2680A435A607B689B697B62C9
:103F80007B681B689A4A934204D07B681B6A7A6AF2
:103F900013437B627B681A687B681B689B6823F00D
:103FA0006E4323F43063796A0B4393607B681B682C
:103FB0007A681268D26A22F00F017A68526A0A435C
:103FC000DA627B681B688B4A934226D10320FFF795
:103FD00009FD0346032B1BD801A252F823F000BFB2
:103FE000F13F000801400008F93F000809400008BF
:103FF000012387F8233042E0022387F823303EE094
:10400000042387F823303AE0082387F8233036E08A
:10401000102387F8233000BF31E07B681B68744AA7
:10402000934229D14FF44060FFF7ECFC0346B3F50F
:10403000806F14D0B3F5806F02D8002B07D016E044
:10404000B3F5006F07D0B3F5406F0CD00FE000233D
:1040500087F8233013E0022387F823300FE004238E
:1040600087F823300BE0082387F8233007E010237C
:1040700087F8233000BF02E0102387F823307B68E5
:104080001B685B4A934240F0138497F82330082B57
:1040900000F2738101A252F823F000BFC140000872
:1040A0007B430008634100087B4300082B42000863
:1040B0007B4300087B4300087B430008CD42000897
:1040C000FEF7D0FE02467B685B6A002B44D07B681B
:1040D0005B6A012B3ED07B685B6A022B38D07B6821
:1040E0005B6A032B32D07B685B6A042B2CD07B6825
:1040F0005B6A052B26D07B685B6A062B20D07B6829
:104100005B6A072B1AD07B685B6A082B14D07B682C
:104110005B6A092B0ED07B685B6A0A2B08D07B6830
:104120005B6A0B2B02D14FF4807316E0012314E07D
:10413000802312E0402310E020230EE010230CE047
:104140000C230AE00A2308E0082306E0062304E023
:10415000042302E0022300E00123B2FBF3F37B61BE
:104160000EE17B685B6A002B5CD07B685B6A012B8D
:1041700056D07B685B6A022B50D07B685B6A032B4E
:1041800032D07B685B6A042B2CD07B685B6A052B82
:1041900026D07B685B6A062B20D07B685B6A072B86
:1041A0001AD07B685B6A082B14D07B685B6A092B8A
:1041B0000ED07B685B6A0A2B08D07B685B6A0B2B8E
:1041C00002D14FF224432EE00B4B2CE00B4B2AE0A4
:1041D0000B4B28E00B4B26E00B4B24E00B4B22E073
:1041E0000B4B20E00B4B1EE00B4B1CE0F369FFCFA9
:1041F00000800040003801400024F40048E801003D
:1042000090D0030020A1070040420F005558140031
:10421000006A180080841E00AAB02800A74B02E0A4
:10422000A74B00E0A74B7B61AAE0FEF79DFD02468D
:104230007B685B6A002B44D07B685B6A012B3ED0B5
:104240007B685B6A022B38D07B685B6A032B32D0B9
:104250007B685B6A042B2CD07B685B6A052B26D0BD
:104260007B685B6A062B20D07B685B6A072B1AD0C1
:104270007B685B6A082B14D07B685B6A092B0ED0C5
:104280007B685B6A0A2B08D07B685B6A0B2B02D1C8
:104290004FF4807316E0012314E0802312E04023E2
:1042A00010E020230EE010230CE00C230AE00A2388
:1042B00008E0082306E0062304E0042302E00223CA
:1042C00000E00123B2FBF3F37B6159E07B685B6A9A
:1042D000002B4ED07B685B6A012B47D07B685B6A02
:1042E000022B40D07B685B6A032B39D07B685B6A0A
:1042F000042B32D07B685B6A052B2BD07B685B6A12
:10430000062B24D07B685B6A072B1DD07B685B6A19
:10431000082B16D07B685B6A092B0FD07B685B6A21
:104320000A2B08D07B685B6A0B2B01D1802322E02B
:104330004FF400431FE04FF480731CE04FF4007310
:1043400019E04FF4806316E04FF4006313E040F689
:10435000AA2310E040F6CC430DE04FF480530AE06E
:1043600041F2555307E04FF4005304E04FF480430B
:1043700001E04FF400437B6102E00123FB7600BFC4
:104380007B69002B00F0EE857B685A6813465B0062
:104390001A447B699A4205D87B685B681A037B697B
:1043A0009A4203D20123FB7600F0DCBD97F823305C
:1043B000082B00F26A8201A252F823F0E1430008C0
:1043C0008B4800081D4500088B4800080D46000872
:1043D0008B4800088B4800088B48000837470008C6
:1043E000FEF740FD38613B6918464FF000017B68DD
:1043F0005B6A002B6DD07B685B6A012B64D07B68A5
:104400005B6A022B55D07B685B6A032B4CD07B68C0
:104410005B6A042B43D07B685B6A052B3AD07B68D0
:104420005B6A062B31D07B685B6A072B28D07B68E0
:104430005B6A082B1FD07B685B6A092B16D07B68F0
:104440005B6A0A2B0DD07B685B6A0B2B04D14FF49F
:1044500080734FF0000440E04FF001034FF0000480
:104460003BE04FF080034FF0000436E04FF0400394
:104470004FF0000431E04FF020034FF000042CE037
:104480004FF010034FF0000427E04FF00C034FF003
:10449000000422E04FF00A034FF000041DE04FF04B
:1044A00008034FF0000418E04FF006034FF000043B
:1044B00013E04FF004034FF000040EE000093D004C
:1044C00000127A000024F4004FF002034FF00004C1
:1044D00003E04FF001034FF000041A462346FCF7B7
:1044E00071FA03460C464FEA042949EA13694FEA78
:1044F00003287B685B685B084FF0000418EB03003F
:1045000049EB04017B685B684FF000041A462346C0
:10451000FCF758FA03460C46FB61B9E17B685B6A1D
:10452000002B59D07B685B6A012B51D07B685B6A9A
:10453000022B49D07B685B6A032B42D07B685B6AA5
:10454000042B3AD07B685B6A052B32D07B685B6AB0
:10455000062B2BD07B685B6A072B23D07B685B6ABA
:10456000082B1BD07B685B6A092B13D07B685B6AC6
:104570000A2B0BD07B685B6A0B2B03D1A84B4FF047
:1045800000042CE0A74B4FF0000428E0A64B4FF0AE
:10459000000424E0A54B4FF0000420E0A44B4FF0B2
:1045A00000041CE0A34B4FF0000418E098A418CCC2
:1045B00015E0A14B4FF0000411E0A04B4FF00004B8
:1045C0000DE095A418CC0AE09D4B4FF0000406E0E6
:1045D0009C4B4FF0000402E0924B4FF000047A68CD
:1045E0005268520811464FF000025D1844EB020673
:1045F000284631467B685B684FF000041A46234624
:10460000FCF7E0F903460C46FB6141E1FEF7ACFB29
:1046100038613B6918464FF000017B685B6A002BEC
:1046200067D07B685B6A012B5ED07B685B6A022B7C
:1046300055D07B685B6A032B4CD07B685B6A042B8C
:1046400043D07B685B6A052B3AD07B685B6A062B9C
:1046500031D07B685B6A072B28D07B685B6A082BAC
:104660001FD07B685B6A092B16D07B685B6A0A2BBC
:104670000DD07B685B6A0B2B04D14FF480734FF035
:1046800000043AE04FF001034FF0000435E04FF032
:1046900080034FF0000430E04FF040034FF000047F
:1046A0002BE04FF020034FF0000426E04FF0100302
:1046B0004FF0000421E04FF00C034FF000041CE029
:1046C0004FF00A034FF0000417E04FF008034FF0DB
:1046D000000412E04FF006034FF000040DE04FF02D
:1046E00004034FF0000408E04FF002034FF0000411
:1046F00003E04FF001034FF000041A462346FCF795
:1047000061F903460C46260246EA13661D027B68E1
:104710005B685B084FF00004E81846EB04017B6817
:104720005B684FF000041A462346FCF74BF903463A
:104730000C46FB61ACE07B685B6A002B00F08A8072
:104740007B685B6A012B5BD07B685B6A022B52D073
:104750007B685B6A032B4AD07B685B6A042B41D081
:104760007B685B6A052B39D07B685B6A062B31D08E
:104770007B685B6A072B28D07B685B6A082B1FD09D
:104780007B685B6A092B16D07B685B6A0A2B0DD0AD
:104790007B685B6A0B2B04D14FF400434FF000049D
:1047A0005CE04FF400034FF0000457E04FF4803317
:1047B0004FF0000452E04FF400334FF000044DE09E
:1047C0004FF480234FF0000448E04FF400234FF0F3
:1047D000000443E01C4B4FF000043FE01B4B4FF044
:1047E00000043BE04FF480134FF0000436E0184B18
:1047F0004FF0000432E04FF400134FF000042DE0BE
:104800004FF480034FF0000428E000BFAFF30080B6
:10481000005558140000000000AAB0280000000055
:104820000024F400000024F40048E8010090D003C4
:104830000020A1070040420F00006A180080841E7B
:104840000000093D0000127A00AA0A0000CC0C000A
:10485000005515004FF400034FF000047A685268C9
:10486000520811464FF000025D1844EB020628463C
:1048700031467B685B684FF000041A462346FCF71C
:10488000A1F803460C46FB6102E00123FB7600BF62
:10489000FB69B3F5407F08D3FB69B3F5801F04D2F1
:1048A0007B681B68FA69DA605CE30123FB7659E3F5
:1048B0007B68DB69B3F5004F40F0A78197F82330A0
:1048C000013B072B00F2818101A252F823F000BFC7
:1048D000F1480008A9490008CB4B0008514A0008DC
:1048E000CB4B0008CB4B0008CB4B0008094B000812
:1048F000FEF7CEFA38617B685B6A002B44D07B6898
:104900005B6A012B3ED07B685B6A022B38D07B68E8
:104910005B6A032B32D07B685B6A042B2CD07B68EC
:104920005B6A052B26D07B685B6A062B20D07B68F0
:104930005B6A072B1AD07B685B6A082B14D07B68F4
:104940005B6A092B0ED07B685B6A0A2B08D07B68F8
:104950005B6A0B2B02D14FF4807316E0012314E045
:10496000802312E0402310E020230EE010230CE00F
:104970000C230AE00A2308E0082306E0062304E0EB
:10498000042302E0022300E001233A69B2FBF3F3BF
:104990005A007B685B685B081A447B685B68B2FB03
:1049A000F3F39BB2FB6113E17B685B6A002B43D09E
:1049B0007B685B6A012B3DD07B685B6A022B37D03A
:1049C0007B685B6A032B31D07B685B6A042B2BD03E
:1049D0007B685B6A052B25D07B685B6A062B1FD042
:1049E0007B685B6A072B19D07B685B6A082B13D046
:1049F0007B685B6A092B0DD07B685B6A0A2B07D04A
:104A00007B685B6A0B2B01D18C4B16E08C4B14E05E
:104A10008C4B12E08C4B10E08C4B0EE08C4B0CE07E
:104A20008C4B0AE08C4B08E08C4B06E08C4B04E08E
:104A30008C4B02E08C4B00E0814B7A685268520844
:104A40001A447B685B68B2FBF3F39BB2FB61BFE087
:104A5000FEF78AF938617B685B6A002B44D07B687B
:104A60005B6A012B3ED07B685B6A022B38D07B6887
:104A70005B6A032B32D07B685B6A042B2CD07B688B
:104A80005B6A052B26D07B685B6A062B20D07B688F
:104A90005B6A072B1AD07B685B6A082B14D07B6893
:104AA0005B6A092B0ED07B685B6A0A2B08D07B6897
:104AB0005B6A0B2B02D14FF4807316E0012314E0E4
:104AC000802312E0402310E020230EE010230CE0AE
:104AD0000C230AE00A2308E0082306E0062304E08A
:104AE000042302E0022300E001233A69B2FBF3F35E
:104AF0005A007B685B685B081A447B685B68B2FBA2
:104B0000F3F39BB2FB6163E07B685B6A002B4FD0E1
:104B10007B685B6A012B48D07B685B6A022B41D0C3
:104B20007B685B6A032B3AD07B685B6A042B33D0CB
:104B30007B685B6A052B2CD07B685B6A062B25D0D3
:104B40007B685B6A072B1ED07B685B6A082B17D0DB
:104B50007B685B6A092B10D07B685B6A0A2B09D0E3
:104B60007B685B6A0B2B02D14FF4807322E04FF419
:104B700080331FE04FF400731CE04FF4806319E0B2
:104B80004FF4006316E04FF4805313E041F25453A6
:104B900010E041F698130DE04FF400530AE042F69E
:104BA000AA2307E04FF4804304E04FF4004301E000
:104BB0004FF480337A68526852081A447B685B6805
:104BC000B2FBF3F39BB2FB6102E00123FB7600BF73
:104BD000FB690F2B16D9FB69B3F5803F12D2FB6935
:104BE0009BB223F00F03FB81FB695B089BB203F0D0
:104BF00007039AB2FB891343FB817B681B68FA8920
:104C0000DA60AFE10123FB76ACE197F82330013B9A
:104C1000072B00F2968101A252F823F06D4C000898
:104C2000234D0008434F0008CD4D0008434F0008B6
:104C3000434F0008434F0008834E000848E8010036
:104C40000048E80190D0030020A1070040420F0077
:104C500080841E00AAB0280000D4300000093D0066
:104C60005461510000127A000024F400FEF710F99C
:104C700038617B685B6A002B44D07B685B6A012BE0
:104C80003ED07B685B6A022B38D07B685B6A032B63
:104C900032D07B685B6A042B2CD07B685B6A052B67
:104CA00026D07B685B6A062B20D07B685B6A072B6B
:104CB0001AD07B685B6A082B14D07B685B6A092B6F
:104CC0000ED07B685B6A0A2B08D07B685B6A0B2B73
:104CD00002D14FF4807316E0012314E0802312E028
:104CE000402310E020230EE010230CE00C230AE008
:104CF0000A2308E0082306E0062304E0042302E078
:104D0000022300E001233A69B2FBF3F27B685B689F
:104D10005B081A447B685B68B2FBF3F39BB2FB61F0
:104D200012E17B685B6A002B44D07B685B6A012BD5
:104D30003ED07B685B6A022B38D07B685B6A032BB2
:104D400032D07B685B6A042B2CD07B685B6A052BB6
:104D500026D07B685B6A062B20D07B685B6A072BBA
:104D60001AD07B685B6A082B14D07B685B6A092BBE
:104D70000ED07B685B6A0A2B08D07B685B6A0B2BC2
:104D800002D14FF2244316E0804B14E0804B12E036
:104D9000804B10E0804B0EE0804B0CE0804B0AE033
:104DA000804B08E0804B06E0804B04E0804B02E043
:104DB000804B00E0754B7A68526852081A447B6851
:104DC0005B68B2FBF3F39BB2FB61BDE0FDF7CCFF88
:104DD00038617B685B6A002B44D07B685B6A012B7F
:104DE0003ED07B685B6A022B38D07B685B6A032B02
:104DF00032D07B685B6A042B2CD07B685B6A052B06
:104E000026D07B685B6A062B20D07B685B6A072B09
:104E10001AD07B685B6A082B14D07B685B6A092B0D
:104E20000ED07B685B6A0A2B08D07B685B6A0B2B11
:104E300002D14FF4807316E0012314E0802312E0C6
:104E4000402310E020230EE010230CE00C230AE0A6
:104E50000A2308E0082306E0062304E0042302E016
:104E6000022300E001233A69B2FBF3F27B685B683E
:104E70005B081A447B685B68B2FBF3F39BB2FB618F
:104E800062E07B685B6A002B4ED07B685B6A012B1B
:104E900047D07B685B6A022B40D07B685B6A032B40
:104EA00039D07B685B6A042B32D07B685B6A052B48
:104EB0002BD07B685B6A062B24D07B685B6A072B50
:104EC0001DD07B685B6A082B16D07B685B6A092B58
:104ED0000FD07B685B6A0A2B08D07B685B6A0B2B60
:104EE00001D1802322E04FF400431FE04FF4807390
:104EF0001CE04FF4007319E04FF4806316E04FF4A8
:104F0000006313E040F6AA2310E040F6CC430DE026
:104F10004FF480530AE041F2555307E04FF4005339
:104F200004E04FF4804301E04FF400437A68526894
:104F300052081A447B685B68B2FBF3F39BB2FB61D7
:104F400002E00123FB7600BFFB690F2B08D9FB6948
:104F5000B3F5803F04D27B681B68FA69DA6001E030
:104F60000123FB767B680122A3F86A207B6801227B
:104F7000A3F868207B680022DA667B6800221A6743
:104F8000FB7E18462C37BD46BDE8F0830024F400B4
:104F900048E8010090D0030020A1070040420F0024
:104FA00055581400006A180080841E00AAB028001A
:104FB00000093D0000127A0080B483B000AF786031
:104FC0007B689B6A03F00103002B0AD07B681B6897
:104FD0007A681268526822F400317A68D26A0A4309
:104FE0005A607B689B6A03F00203002B0AD07B683F
:104FF0001B687A681268526822F480317A68126BF2
:105000000A435A607B689B6A03F00403002B0AD0B2
:105010007B681B687A681268526822F480217A687B
:10502000526B0A435A607B689B6A03F00803002BAB
:105030000AD07B681B687A681268526822F40041C3
:105040007A68926B0A435A607B689B6A03F010038C
:10505000002B0AD07B681B687A681268926822F479
:1050600080517A68D26B0A439A607B689B6A03F02E
:105070002003002B0AD07B681B687A68126892684C
:1050800022F400517A68126C0A439A607B689B6A2A
:1050900003F04003002B1AD07B681B687A68126803
:1050A000526822F480117A68526C0A435A607B6815
:1050B0005B6CB3F5801F0AD17B681B687A68126845
:1050C000526822F4C0017A68926C0A435A607B6885
:1050D0009B6A03F08003002B0AD07B681B687A6808
:1050E0001268526822F400217A68D26C0A435A602E
:1050F00000BF0C37BD465DF8047B704780B586B0B5
:1051000002AF78607B680022C3F88820FCF7A4FA1D
:10511000F8607B681B681B6803F00803082B0ED13E
:105120006FF07E430093FB6800224FF40011786813
:1051300000F02CF80346002B01D0032322E07B680B
:105140001B681B6803F00403042B0ED16FF07E4331
:105150000093FB6800224FF48001786800F016F895
:105160000346002B01D003230CE07B682022C3F808
:1051700080207B682022C3F884207B68002283F88B
:105180007C20002318461037BD4680BD80B584B012
:1051900000AFF860B9603B601346FB7162E0BB6929
:1051A000B3F1FF3F5ED0FCF757FA02463B68D21AD4
:1051B000BB699A4202D8BB69002B1DD1FB681B68F2
:1051C000FA681268126822F4D0721A60FB681B68D1
:1051D000FA681268926822F001029A60FB68202245
:1051E000C3F88020FB682022C3F88420FB680022DB
:1051F00083F87C20032345E0FB681B681B6803F0F1
:105200000403002B2ED0FB681B68DB6903F40063EA
:10521000B3F5006F26D1FB681B684FF400621A6279
:10522000FB681B68FA681268126822F4D0721A6070
:10523000FB681B68FA681268926822F001029A60A3
:10524000FB682022C3F88020FB682022C3F884205A
:10525000FB682022C3F88820FB68002283F87C20AA
:1052600003230FE0FB681B68DA69BB681A40BB6860
:105270009A420CBF01230023DBB21A46FB799A4203
:105280008DD0002318461037BD4680BD80B483B052
:1052900000AF78607B681B687A681268126822F435
:1052A00090721A607B681A687B681B689B6823F0A1
:1052B000805323F0010393607B682022C3F884208D
:1052C0007B680022DA6600BF0C37BD465DF8047BC0
:1052D000704780B584B000AF78607B689B6AFB60E4
:1052E000FB680022A3F85E20FB680022A3F856208A
:1052F000F868FEF707FE00BF1037BD4680BD80B5D9
:1053000082B000AF78607B681B687A6812681268A8
:1053100022F040021A607B682022C3F880207B685C
:1053200000221A677868FEF7E3FD00BF0837BD4624
:1053300080BD80B483B000AF786000BF0C37BD463D
:105340005DF8047B704780B483B000AF786000BF25
:105350000C37BD465DF8047B704780B483B000AF66
:10536000786000BF0C37BD465DF8047B704780B4A1
:1053700085B000AF78607B6893F87C30012B01D159
:10538000022327E07B68012283F87C207B682422AB
:10539000C3F880207B681B681B68FB607B681B6808
:1053A0007A681268126822F001021A60FB6823F022
:1053B0000053FB607B6800225A667B681B68FA68B2
:1053C0001A607B682022C3F880207B68002283F863
:1053D0007C20002318461437BD465DF8047B7047D7
:1053E00080B584B000AF786039607B6893F87C301A
:1053F000012B01D102232DE07B68012283F87C2060
:105400007B682422C3F880207B681B681B68FB60D4
:105410007B681B687A681268126822F001021A60C1
:105420007B681B687A681268926822F060413A686B
:105430000A439A60786800F04FF87B681B68FA6846
:105440001A607B682022C3F880207B68002283F8E2
:105450007C20002318461037BD4680BD80B584B03F
:1054600000AF786039607B6893F87C30012B01D104
:1054700002232DE07B68012283F87C207B682422B4
:10548000C3F880207B681B681B68FB607B681B6817
:105490007A681268126822F001021A607B681B6841
:1054A0007A681268926822F060613A680A439A60EA
:1054B000786800F011F87B681B68FA681A607B68EE
:1054C0002022C3F880207B68002283F87C20002300
:1054D00018461037BD4680BD80B489B000AF7860F3
:1054E0002F4A07F1140392E8030083E803002D4AD2
:1054F00007F10C0392E8030083E803007B685B6E0E
:10550000002B08D17B680122A3F86A207B68012266
:10551000A3F868203DE00823FB770823BB777B686E
:105520001B689B685B0EDBB203F007037B777B682D
:105530001B689B685B0FDBB203F007033B77BB7F05
:105540003A7F07F120010A4412F80C2C02FB03F306
:105550003A7F07F120010A4412F8142C93FBF2F36E
:105560009AB27B68A3F86A20FB7F7A7F07F120015B
:105570000A4412F80C2C02FB03F37A7F07F1200196
:105580000A4412F8142C93FBF2F39AB27B68A3F846
:10559000682000BF2437BD465DF8047B704700BF1C
:1055A000147400081C74000880B582B000AF084B6A
:1055B0007B607868FAF7E4FD03469AB24FF6FF7312
:1055C00079680448FEF77EFA00BF0837BD4680BD03
:1055D000247400080405002080B584B000AF87ED76
:1055E000010A7B68FB6007F10C014FF47A73042217
:1055F0000348FEF767FA00BF1037BD4680BD00BF05
:105600000405002080B483B000AF78607B68D3F8D5
:1056100000247B68D3F804349A420CBF0123002392
:10562000DBB218460C37BD465DF8047B704780B48A
:1056300083B000AF78607B68D3F80034DAB27B685F
:1056400053F8223018460C37BD465DF8047B70478E
:1056500080B582B000AF78607868FFF7D3FF03466B
:10566000002B10D17B68D3F80034DAB27B680021BC
:1056700043F822107B68D3F800345A1C7B68C3F8C7
:105680000024012300E0002318460837BD4680BDF2
:1056900080B483B000AF786039607B68D3F804349D
:1056A000DAB27B68396843F822107B68D3F8043497
:1056B0005A1C7B68C3F8042400BF0C37BD465DF854
:1056C000047B704780B489B000AFF860B9607A603D
:1056D0004FF0FF33FB617B681B88002B2AD07B686F
:1056E00002331B88002B25D07B681A887B68023325
:1056F0001B889A428CBF01230023DBB2FB76FB6838
:105700001B685A1CBB689A420ED1FB685B685A0042
:10571000FB7E1A43FB685A60FB685B6803F0030377
:105720001C4AD35CFB6102E0FA7EFB685A60FB68AE
:10573000BA681A60FB69002B26DBFB689B680F2B9D
:1057400022DCFB689B68002B0AD1FB6801229A606F
:10575000FA69BB68D31A03F00302FB68DA6013E04E
:10576000FB68DA68BB68134403F003037B61FB68E2
:105770009A68F9697B69994201D1012301E04FF0F0
:10578000FF331A44FB689A6000BF2437BD465DF8BA
:10579000047B7047507D000880B483B000AF786010
:1057A00039607B689B68032B06DD7B68DA683B68A1
:1057B000134403F0030301E04FF0FF3318460C37A6
:1057C000BD465DF8047B704780B483B000AF78605D
:1057D0007B6800229A607B684FF0FF321A607B681A
:1057E000054A1A617B6800225A6000BF0C37BD462B
:1057F0005DF8047B704700BF00007A42B0B596B0F8
:1058000002AF786039603B681A887B68A3F8702023
:105810003B685A687B689A673B685B68C72B40F3B4
:1058200090807B6860333B643B6C1B685B0110338A
:105830003A681344FB630023FB640023BB6411E05C
:105840003B689A68FB6BB96C043153F82130D31A6A
:10585000BB63BB6BFA6C934238BF1346FB64BB6CF3
:105860000133BB64BB6C032BEADDFB6C0B2B64D8F0
:10587000FB6C032B02D84FF47A7201E04FF44872AC
:105880007B689A677868FB6BD3ED007AFB6B93EDCE
:10589000017A07F1140207F12C031946F0EE470ACA
:1058A000B0EE670A00F0D3F87B6803F13000FB6BC1
:1058B000D3ED027AFB6B93ED037A07F1080207F14F
:1058C00020031946F0EE470AB0EE670A00F0BFF871
:1058D0007B687C337A68883207F1200507F1080479
:1058E00007F12C0107F11400019200932B46224688
:1058F00000F034F900237B641BE07A687B6C1E3374
:105900009B001344043393ED007A3A6C7B6C9B004C
:1059100013440433D3ED007A77EE677A7A687B6CB0
:105920001E339B0013440433C3ED007A7B6C0133B8
:105930007B647B6C022BE0DD03E07B684FF4FA7242
:105940009A6700BF5037BD46B0BD80B485B000AF88
:10595000F860B9607A60FB68043393ED007ABB6845
:105960000833D3ED007A27EE277AFB680833D3EDAE
:10597000006ABB680433D3ED007A66EEA77A77EE4F
:10598000677A7B68C3ED007A7B680433FA68083273
:1059900092ED007ABA68D2ED007A27EE277AFA689B
:1059A000D2ED006ABA680832D2ED007A66EEA77AC4
:1059B00077EE677AC3ED007A7B680833FA6892ED78
:1059C000007ABA680432D2ED007A27EE277AFA68B4
:1059D0000432D2ED006ABA68D2ED007A66EEA77A98
:1059E00077EE677AC3ED007A00BF1437BD465DF8E5
:1059F000047B704780B586B000AF786007F10C0378
:105A00001A4603217868FBF73FFDFB687B6107F1CD
:105A100008033B61D7ED057AF5EEC07AF1EE10FA96
:105A200009DB97ED050A01F039FCF0EE407A3B699D
:105A3000C3ED007A03E03B694FF000021A60BB68D7
:105A400007EE903AB0EE670A1837BD4680BD80B5C4
:105A50009AB000AF786187ED040AC7ED030AB96018
:105A60007A6097ED040AFBF71FFBF0EE407AC7ED72
:105A7000167A4FF00003FB6597ED040AFBF790FBE5
:105A8000F0EE407AF1EE677AC7ED187A4FF0000336
:105A9000FB6497ED030AFBF707FBF0EE407AC7EDD6
:105AA000147A97ED030AFBF77BFBF0EE407AC7ED23
:105AB000157A07F1400300221A605A609A6007F1D4
:105AC000400207F1580107F14C031846FFF73DFF6C
:105AD00007F140031846FFF78DFF87ED190AB7EE6F
