:020000040800F2
:10000000000003200D800008597B0008677B000872
:100010006D7B0008737B0008797B000800000000FE
:10002000000000000000000000000000814F0008F8
:100030007F7B000800000000C15100082952000821
:100040005D8000085D8000085D8000085D8000081C
:100050005D8000085D8000088D7B00085D800008E1
:100060005D8000085D8000085D8000085D800008FC
:100070005D8000085D8000085D8000085D800008EC
:100080005D8000085D8000085D8000085D800008DC
:100090005D8000085D8000085D8000085D800008CC
:1000A0005D8000089D7B00085D8000085D80000881
:1000B0005D8000085D8000085D8000085D800008AC
:1000C0005D8000085D8000085D8000085D8000089C
:1000D000B97B00085D8000085D8000085D80000835
:1000E0005D8000085D8000085D8000085D8000087C
:1000F0005D8000085D8000085D8000085D8000086C
:100100005D8000085D8000085D8000085D8000085B
:100110005D8000085D8000085D8000085D8000084B
:100120005D8000085D8000085D8000085D8000083B
:0C0130005D8000085D8000085D80000814
:1001400010B5054C237833B9044B13B10448AFF311
:1001500000800123237010BD140000200000000067
:10016000D080000808B5034B1BB103490348AFF327
:10017000008008BD0000000018000020D0800008AA
:10018000034613F8012B002AFBD1181A01387047D7
:1001900053B94AB9002908BF00281CBF4FF0FF31EE
:1001A0004FF0FF3000F07AB9ADF1080C6DE904CEE4
:1001B00000F006F8DDF804E0DDE9022304B0704742
:1001C0002DE9F0478C460D460446089E002B51D180
:1001D0008A4217466DD9B2FA82FEBEF1000F0BD0EB
:1001E000CEF1200C01FA0EF520FA0CFC02FA0EF703
:1001F0004CEA050C00FA0EF44FEA174A250CBCFB3A
:10020000FAF81FFA87F90AFB18CC45EA0C4508FBF7
:1002100009F3AB420AD9ED1908F1FF3280F02381CE
:10022000AB4240F22081A8F102083D44ED1AA4B28D
:10023000B5FBFAF00AFB105544EA054400FB09F946
:10024000A14509D9E41900F1FF3380F00A81A145E5
:1002500040F2078102383C44A4EB090440EA08401C
:100260000021002E61D024FA0EF400233460736064
:10027000BDE8F0878B4207D9002E54D0002186E8D4
:1002800021000846BDE8F087B3FA83F1002940F069
:100290008E80AB4202D3824200F2FA80841A65EB70
:1002A00003050120AC46002E3FD086E81010BDE8C3
:1002B000F08712B90127B7FBF2F7B7FA87FEBEF154
:1002C000000F34D1EB1B3A0C1FFA87FC0121B3FB62
:1002D000F2F8250C02FB183345EA03450CFB08F342
:1002E000AB4207D9ED1908F1FF3002D2AB4200F260
:1002F000D1808046ED1AA3B2B5FBF2F002FB105597
:1003000043EA05440CFB00FCA44507D9E41900F1BD
:10031000FF3302D2A44500F2B8801846A4EB0C04C7
:1003200040EA08409DE731463046BDE8F087CEF10F
:10033000200405FA0EF307FA0EF720FA04F83A0C37
:1003400025FA04F448EA0308B4FBF2F14FEA184531
:1003500002FB11441FFA87FC45EA044501FB0CF33C
:10036000AB4200FA0EF409D9ED1901F1FF3080F02B
:100370008A80AB4240F2878002393D44EB1A1FFA73
:1003800088F5B3FBF2F002FB103345EA034500FBAE
:100390000CF3AB4207D9ED1900F1FF386FD2AB4235
:1003A0006DD902383D44EB1A40EA01418FE7C1F1B3
:1003B000200722FA07F88B4005FA01F448EA030304
:1003C00020FA07FE4FEA134CFD404EEA040EB5FB3F
:1003D000FCF94FEA1E440CFB19551FFA83F844EA56
:1003E000054509FB08F4AC4202FA01F200FA01FAF1
:1003F00008D9ED1809F1FF3043D2AC4241D9A9F137
:1004000002091D442D1B1FFA8EFEB5FBFCF00CFBF0
:1004100010554EEA054400FB08F8A04507D9E4183A
:1004200000F1FF3529D2A04527D902381C4440EA03
:100430000940A4EB0804A0FB02894C45C6464D4682
:1004400015D312D056B1BAEB0E0364EB050404FACF
:1004500007F7CB401F43CC40376074600021BDE8F4
:10046000F0871846F8E69046E0E6C245EAD2B8EBD7
:10047000020E69EB03050138E4E72846D7E740465A
:1004800091E78146BEE7014678E702383C4445E7FC
:10049000084608E7A8F102083D442BE7704700BF73
:1004A00080B582B000AF0023FB710C4A0B4B1B6878
:1004B00043F480731360032000F0E7F8002007F096
:1004C000FFFA0346002B02D00123FB7101E007F085
:1004D000D4FAFB7918460837BD4680BD0040005865
:1004E00080B400AF054B1A68054B1B681344034AE0
:1004F000136000BFBD465DF8047B704748340020A0
:100500000800002080B400AF034B1B681846BD46AE
:100510005DF8047B704700BF4834002080B400AF12
:10052000034B1B681846BD465DF8047B704700BF4F
:100530000400002080B485B000AF78607B6803F0D1
:100540000703FB600C4BDB68BB60BA684FF6FF0328
:100550001340BB60FB681A02BB68134343F0BF63E0
:1005600043F40033BB60044ABB68D36000BF143758
:10057000BD465DF8047B704700ED00E080B400AF3D
:10058000044BDB681B0A03F007031846BD465DF801
:10059000047B704700ED00E080B483B000AF0346F9
:1005A000FB7197F90730002B0BDB094997F90730EE
:1005B0005B09FA7902F01F02012000FA02F241F809
:1005C000232000BF0C37BD465DF8047B704700BF99
:1005D00000E100E080B483B000AF03463960FB71F6
:1005E00097F90730002B0ADB0D4997F907303A6875
:1005F000D2B21201D2B20B4483F800230AE00949B7
:10060000FB7903F00F03043B3A68D2B21201D2B275
:100610000B441A7600BF0C37BD465DF8047B70476B
:1006200000E100E000ED00E080B489B000AFF860C8
:10063000B9607A60FB6803F00703FB61FB69C3F1F3
:100640000703042B28BF0423BB61FB690433062B7B
:1006500002D9FB69033B00E000237B610122BB69F7
:1006600002FA03F35A1EBB681A407B699A400121C3
:100670007B6901FA03F3591E7B680B40134318464C
:100680002437BD465DF8047B704780B582B000AF6B
:1006900078607868FFF74EFF00BF0837BD4680BD21
:1006A00080B586B000AF0346B9607A60FB73FFF790
:1006B00065FF78617A68B9687869FFF7B5FF024627
:1006C00097F90F3011461846FFF784FF00BF18371F
:1006D000BD4680BD80B582B000AF0346FB7197F97F
:1006E00007301846FFF758FF00BF0837BD4680BDEA
:1006F00080B584B000AF78600023FB737B6893F80B
:100700002530DBB2022B05D07B680422DA6301239B
:10071000FB7347E07B681B687A681268126822F0F6
:100720000E021A607B681B687A681268126822F0F1
:1007300001021A607B689B6C7A68926C126822F4E2
:1007400080721A607B681B6C7A68526C02F01C0223
:10075000012101FA02F25A607B68DB6C7A68126D43
:100760005A607B685B6D002B0CD07B685B6D7A6890
:10077000526D126822F480721A607B689B6D7A68F1
:10078000D26D5A607B68012283F825207B680022A5
:1007900083F824207B689B6B002B03D07B689B6BCA
:1007A00078689847FB7B18461037BD4680BD00002F
:1007B00080B487B000AF7860396000237B614CE182
:1007C0003B681A6801217B6901FA03F31340FB605F
:1007D000FB68002B00F03E813B685B68022B03D076
:1007E0003B685B68122B23D17B69DA087B6808328F
:1007F00053F822303B617B6903F007039B000F2213
:1008000002FA03F3DB433A6913403B613B681A6920
:100810007B6903F007039B0002FA03F33A69134371
:100820003B617B69DA087B680832396943F822103A
:100830007B681B683B617B695B00032202FA03F360
:10084000DB433A6913403B613B685B6803F003029A
:100850007B695B0002FA03F33A6913433B617B68EF
:100860003A691A603B685B68012B0BD03B685B6898
:10087000022B07D03B685B68112B03D03B685B6899
:10088000122B30D17B689B683B617B695B00032244
:1008900002FA03F3DB433A6913403B613B68DA68D1
:1008A0007B695B0002FA03F33A6913433B617B689F
:1008B0003A699A607B685B683B6101227B6902FA56
:1008C00003F3DB433A6913403B613B685B681B09F8
:1008D00003F001027B6902FA03F33A6913433B61B7
:1008E0007B683A695A607B68DB683B617B695B00C7
:1008F000032202FA03F3DB433A6913403B613B688E
:100900009A687B695B0002FA03F33A6913433B611F
:100910007B683A69DA603B685B6803F08053002BC0
:1009200000F09880544A7B699B08023352F82330C8
:100930003B617B6903F003039B000F2202FA03F380
:10094000DB433A6913403B617B68B3F1904F19D0A8
:100950007B684A4A934213D07B68494A93420DD040
:100960007B68484A934207D07B68474A934201D14B
:10097000042308E0072306E0032304E0022302E047
:10098000012300E000237A6902F003029200934001
:100990003A6913433B6138497B699B0802333A69E2
:1009A00041F82320394BD3F880303B61FB68DB43AF
:1009B0003A6913403B613B685B6803F48033002B6A
:1009C00003D03A69FB6813433B61304A3B69C2F884
:1009D00080302E4BD3F884303B61FB68DB433A69AF
:1009E00013403B613B685B6803F40033002B03D08A
:1009F0003A69FB6813433B61244A3B69C2F884307F
:100A0000224B1B683B61FB68DB433A6913403B6147
:100A10003B685B6803F48013002B03D03A69FB68E2
:100A200013433B61194A3B691360184B5B683B6198
:100A3000FB68DB433A6913403B613B685B6803F446
:100A40000013002B03D03A69FB6813433B610F4A44
:100A50003B6953607B6901337B613B681A687B6942
:100A600022FA03F3002B7FF4ABAE00BF1C37BD4668
:100A70005DF8047B704700BF00000140000400489F
:100A800000080048000C004800100048000800580A
:100A900080B485B000AF78600B467B807B681A69B4
:100AA0007B881340002B02D00123FB7301E000235D
:100AB000FB73FB7B18461437BD465DF8047B70471B
:100AC00080B483B000AF78600B467B8013467B70A8
:100AD0007B78002B03D07A887B689A6102E07A8861
:100AE0007B689A6200BF0C37BD465DF8047B704797
:100AF00080B582B000AF0346FB80084BDA68FB8804
:100B00001340002B06D0054AFB88D360FB881846AB
:100B100006F04AFF00BF0837BD4680BD00080058F8
:100B200080B400AF054A054B1B6843F48073136023
:100B300000BFBD465DF8047B704700BF000400584D
:100B400080B400AF044B1B6803F4C0631846BD4675
:100B50005DF8047B704700BF0004005880B400AF0C
:100B60004FF0B0431B6803F48013B3F5801F01D12D
:100B7000012300E000231846BD465DF8047B704762
:100B800080B400AF4FF0B0424FF0B0431B6843F465
:100B90008023136000BFBD465DF8047B704780B4BE
:100BA00000AF4FF0B0424FF0B0431B6823F48023F6
:100BB000136000BFBD465DF8047B704780B400AF92
:100BC0004FF0B0424FF0B0431B6843F480331360E2
:100BD00000BFBD465DF8047B704780B400AF4FF0A6
:100BE000B0424FF0B0431B6823F48033136000BF62
:100BF000BD465DF8047B704780B400AF4FF0B04352
:100C00001B6803F40033B3F5003F01D1012300E07A
:100C100000231846BD465DF8047B704780B400AFE2
:100C20004FF0B0424FF0B0431B6843F48073136041
:100C300000BFBD465DF8047B704780B400AF4FF045
:100C4000B0424FF0B0431B6823F48073136000BFC1
:100C5000BD465DF8047B704780B400AF4FF0B043F1
:100C60001B6803F48063B3F5806F01D1012300E0BA
:100C700000231846BD465DF8047B704780B483B0FE
:100C800000AF78604FF0B0414FF0B0435B6823F0A5
:100C9000FE427B681B0613434B6000BF0C37BD460A
:100CA0005DF8047B704780B400AF4FF0B0424FF066
:100CB000B043D3F8983043F00103C2F8983000BF36
:100CC000BD465DF8047B704780B400AF4FF0B04282
:100CD0004FF0B043D3F8983023F00103C2F89830B6
:100CE00000BFBD465DF8047B704780B400AF4FF095
:100CF000B043D3F8983003F00203022B01D1012353
:100D000000E000231846BD465DF8047B704780B4C0
:100D100000AF4FF0B0424FF0B043D3F8903043F003
:100D20000103C2F8903000BFBD465DF8047B7047F8
:100D300080B400AF4FF0B0424FF0B043D3F89030E2
:100D400023F00103C2F8903000BFBD465DF8047B7C
:100D5000704780B400AF4FF0B0424FF0B043D3F8CB
:100D6000903043F00403C2F8903000BFBD465DF8F8
:100D7000047B704780B400AF4FF0B0424FF0B043F7
:100D8000D3F8903023F00403C2F8903000BFBD4682
:100D90005DF8047B704780B400AF4FF0B043D3F8E8
:100DA000903003F00203022B01D1012300E0002365
:100DB0001846BD465DF8047B704780B400AF4FF025
:100DC000B0424FF0B043D3F8943043F00103C2F87F
:100DD000943000BFBD465DF8047B704780B400AF1F
:100DE0004FF0B0424FF0B043D3F8943023F00103FA
:100DF000C2F8943000BFBD465DF8047B704780B4F4
:100E000000AF4FF0B043D3F8943003F00203022B4D
:100E100001D1012300E000231846BD465DF8047BA4
:100E2000704780B400AF4FF0B0424FF0B043D3F8FA
:100E3000943043F00403C2F8943000BFBD465DF81F
:100E4000047B704780B400AF4FF0B0424FF0B04326
:100E5000D3F8943023F00403C2F8943000BFBD46A9
:100E60005DF8047B704780B400AF4FF0B043D3F817
:100E7000943003F00803082B01D1012300E0002384
:100E80001846BD465DF8047B704780B483B000AF60
:100E900078604FF0B0414FF0B043D3F8943023F472
:100EA00070627B681B021343C1F8943000BF0C379B
:100EB000BD465DF8047B704780B400AF4FF0B04290
:100EC0004FF0B0431B6843F00103136000BFBD4601
:100ED0005DF8047B704780B400AF4FF0B0424FF034
:100EE000B0431B6823F00103136000BFBD465DF8EB
:100EF000047B704780B400AF4FF0B0431B6803F031
:100F00000203022B01D1012300E000231846BD4655
:100F10005DF8047B704780B483B000AF78604FF019
:100F2000B0414FF0B0431B6823F0F0027B681343DD
:100F30000B6000BF0C37BD465DF8047B704780B482
:100F400083B000AF4FF0B0431B6803F0F0037B6049
:100F50007B68B02B01D9B0237B607B6818460C37C7
:100F6000BD465DF8047B704780B483B000AF786005
:100F70004FF0B0414FF0B0435B6823F47F427B6891
:100F80001B0213434B6000BF0C37BD465DF8047B6A
:100F9000704780B483B000AF78604FF0B0414FF03D
:100FA000B0439B6823F003027B6813438B6000BF50
:100FB0000C37BD465DF8047B704780B400AF4FF03E
:100FC000B0439B6803F00C031846BD465DF8047BF4
:100FD000704780B483B000AF78604FF0B0414FF0FD
:100FE000B0439B6823F0F0027B6813438B6000BF23
:100FF0000C37BD465DF8047B704780B483B000AF0A
:1010000078604FF0B0414FF0B043D3F8083123F08F
:10101000F0027B681343C1F8083100BF0C37BD46AE
:101020005DF8047B704780B483B000AF78604FF008
:10103000B0414FF0B043D3F8083123F00F027B6882
:101040001B091343C1F8083100BF0C37BD465DF8DA
:10105000047B704780B483B000AF78604FF0B0413C
:101060004FF0B0439B6823F4E0627B6813438B60CE
:1010700000BF0C37BD465DF8047B704780B483B079
:1010800000AF78604FF0B0414FF0B0439B6823F45D
:1010900060527B6813438B6000BF0C37BD465DF820
:1010A000047B704780B400AF4FF0B0439B6803F0FF
:1010B000F0031846BD465DF8047B704780B400AF6E
:1010C0004FF0B043D3F8083103F0F0031846BD46A3
:1010D0005DF8047B704780B400AF4FF0B043D3F8A5
:1010E00008311B0103F0F0031846BD465DF8047B90
:1010F000704780B400AF4FF0B0439B6803F4E063E7
:101100001846BD465DF8047B704780B400AF4FF0D1
:10111000B0439B6803F460531846BD465DF8047BFA
:10112000704780B400AF4FF0B0424FF0B0431B683F
:1011300043F08073136000BFBD465DF8047B7047C9
:1011400080B400AF4FF0B0424FF0B0431B6823F0C3
:101150008073136000BFBD465DF8047B704780B4A8
:1011600000AF4FF0B0431B6803F00073B3F1007F92
:1011700001D1012300E000231846BD465DF8047B41
:10118000704780B400AF4FF0B043DB681B0A03F038
:101190007F031846BD465DF8047B704780B400AFFE
:1011A0004FF0B043DB6803F060431846BD465DF87E
:1011B000047B704780B400AF4FF0B043DB6803F0AE
:1011C00070031846BD465DF8047B704780B400AFDD
:1011D0004FF0B043DB6803F003031846BD465DF8EB
:1011E000047B704780B400AF4FF0B0439B6803F4BA
:1011F0008033B3F5803F01D1012300E0002318467E
:10120000BD465DF8047B704780B400AF4FF0B0433B
:10121000D3F8083103F40033B3F5003F01D10123C3
:1012200000E000231846BD465DF8047B704780B49B
:1012300000AF4FF0B043D3F8083103F48033B3F577
:10124000803F01D1012300E000231846BD465DF830
:10125000047B704780B400AF4FF0B0439B6803F449
:101260000033B3F5003F01D1012300E0002318460D
:10127000BD465DF8047B704780B400AF4FF0B043CB
:101280009B6803F48023B3F5802F01D1012300E094
:1012900000231846BD465DF8047B704790B58BB0BF
:1012A00000AF78607B68002B01D101234BE37B68A2
:1012B0001B6803F02003002B00F08F80FFF77DFEFA
:1012C0007862FFF783FF38627B6A002B05D07B6A68
:1012D0000C2B49D13B6A012B46D1FFF70BFE03468D
:1012E000002B05D07B68DB69002B01D101232AE3A9
:1012F0007B685C6AFFF723FE03469C4214D97B6837
:101300005B6A184600F040FD0346002B01D0012324
:1013100019E37B685B6A1846FFF7FDFD7B681B6A73
:101320001846FFF721FE13E07B685B6A1846FFF75B
:10133000F2FD7B681B6A1846FFF716FE7B685B6A46
:10134000184600F021FD0346002B01D00123FAE2EC
:1013500006F092FCB44B1B68184606F0B1FB03463E
:10136000002B39D00123EEE27B68DB69002B1ED015
:10137000FFF7A2FDFFF7C6F8F86108E0FFF7C2F833
:101380000246FB69D31A022B01D90323DBE2FFF7E4
:10139000B1FD0346002BF1D07B685B6A1846FFF76E
:1013A000BAFD7B681B6A1846FFF7DEFD15E0FFF704
:1013B00092FDFFF7A7F8F86108E0FFF7A3F80246EF
:1013C000FB69D31A022B01D90323BCE2FFF792FD7C
:1013D0000346002BF1D100E000BF7B681B6803F0DF
:1013E0000103002B5AD0FFF7E8FDB861FFF7EEFECE
:1013F0007861BB69082B05D0BB690C2B0DD17B69CB
:10140000032B0AD1FFF7F8FB0346002B45D07B687E
:101410005B68002B41D1012395E27B685B68B3F5E3
:10142000803F02D1FFF7CAFB0DE07B685B68B3F534
:10143000A02F04D1FFF7A4FBFFF7C0FB03E0FFF7E9
:10144000CCFBFFF7ACFB7B685B68002B12D0FFF78F
:1014500059F8F86108E0FFF755F80246FB69D31A1E
:10146000642B01D903236EE2FFF7C6FB0346002B72
:10147000F1D013E0FFF746F8F86108E0FFF742F813
:101480000246FB69D31A642B01D903235BE2FFF701
:10149000B3FB0346002BF1D100E000BF7B681B6863
:1014A00003F00203002B51D0FFF787FD3861FFF7EF
:1014B0008DFEF8603B69042B05D03B690C2B13D1E2
:1014C000FB68022B10D1FFF7C7FB0346002B05D0AA
:1014D0007B68DB68002B01D1012334E27B681B6948
:1014E0001846FFF7CBFB31E07B68DB68002B19D097
:1014F000FFF794FBFFF706F8F86108E0FFF702F842
:101500000246FB69D31A022B01D903231BE2FFF722
:10151000A3FB0346002BF1D07B681B691846FFF73D
:10152000ADFB13E0FFF789FBFEF7ECFFF86108E085
:10153000FEF7E8FF0246FB69D31A022B01D9032309
:1015400001E2FFF789FB0346002BF1D17B681B68A2
:1015500003F00803002B06D17B681B6803F010031F
:10156000002B00F0A2807B685B69002B75D07B6844
:101570001B6803F01003002B46D0FFF740FC034626
:10158000002B13D1FFF719FCFEF7BCFFF86108E050
:10159000FEF7B8FF0246FB69D31A022B01D90323D9
:1015A000D1E1FFF72CFC0346002BF1D0FFF739FC0B
:1015B000FEF7A8FFF86108E0FEF7A4FF0246FB690A
:1015C000D31A032B01D90323BDE1FFF74CFC0346DB
:1015D000002BF1D07B689B691846FFF756FCFFF79C
:1015E000FDFBFEF78FFFF86108E0FEF78BFF024678
:1015F000FB69D31A022B01D90323A4E1FFF7FFFBF8
:101600000346002BF1D150E0FFF7D7FBFEF77AFF3E
:10161000F8610BE0FEF776FF0246FB69D31A022B56
:1016200004D903238FE100BF04000020FFF7E7FB8C
:101630000346002BEED0FFF705FC08E0FEF762FF43
:101640000246FB69D31A032B01D903237BE1FFF781
:101650000AFC0346002BF1D127E0FFF7F3FBFEF76E
:1016600051FFF86108E0FEF74DFF0246FB69D31A0F
:10167000032B01D9032366E1FFF7F5FB0346002B9B
:10168000F1D1FFF7ABFBFEF73DFFF86108E0FEF795
:1016900039FF0246FB69D31A022B01D9032352E119
:1016A000FFF7ADFB0346002BF1D17B681B6803F00D
:1016B0000403002B5BD0A64B1B6803F48073002B44
:1016C00014D1FFF72DFAFEF71DFFF86108E0FEF7D1
:1016D00019FF0246FB69D31A022B01D9032332E119
:1016E0009B4B1B6803F48073002BF0D07B689B68D6
:1016F000012B02D1FFF70BFB0CE07B689B68052BED
:1017000004D1FFF726FBFFF702FB03E0FFF710FB16
:10171000FFF730FB7B689B68002B14D0FEF7F2FECE
:10172000F8610AE0FEF7EEFE0246FB69D31A41F2C9
:101730008832934201D9032305E1FFF72CFB0346CE
:10174000002BEFD013E0FEF7DDFEF8610AE0FEF7B4
:10175000D9FE0246FB69D31A41F28832934201D97D
:101760000323F0E0FFF717FB0346002BEFD17B6864
:101770001B6803F04003002B2CD07B689B6A002B76
:1017800014D0FFF790FAFEF7BDFEF86108E0FEF70F
:10179000B9FE0246FB69D31A022B01D90323D2E01A
:1017A000FFF7A3FA0346002BF1D013E0FFF78CFA02
:1017B000FEF7A8FEF86108E0FEF7A4FE0246FB690A
:1017C000D31A022B01D90323BDE0FFF78EFA03469B
:1017D000002BF1D17B68DB6A002B00F0B380FFF7B0
:1017E000ECFB03460C2B76D07B68DB6A022B4BD1DB
:1017F000FFF7A6FCFEF786FEF86108E0FEF782FE22
:101800000246FB69D31A022B01D903239BE0FFF7A1
:10181000A6FC0346002BF1D14FF0B0404FF0B0438F
:10182000DA684C4B13407A68116B7A68526B11433B
:101830007A68926B120211437A68D26B11437A680C
:10184000126C11437A68526C0A431343C360FFF76A
:1018500068FC4FF0B0424FF0B043DB6843F0805378
:10186000D360FEF74FFEF86108E0FEF74BFE02463C
:10187000FB69D31A022B01D9032364E0FFF76FFC45
:101880000346002BF1D05DE0FFF75AFC4FF0B04269
:101890004FF0B043DB6823F00303D3604FF0B04256
:1018A0004FF0B043DB6823F0885323F48033D360D8
:1018B000FEF728FEF86108E0FEF724FE0246FB6909
:1018C000D31A022B01D903233DE0FFF748FC03465E
:1018D000002BF1D136E07B68DB6A012B01D10123BB
:1018E00031E04FF0B043DB68BB60BB6803F003023C
:1018F0007B681B6B9A4223D1BB6803F070027B6844
:101900005B6B9A421CD1BB681B0A03F07F027B68A9
:101910009B6B9A4214D1BB6803F478127B68DB6B33
:101920009A420DD1BB6803F060627B681B6C9A42DF
:1019300006D1BB6803F060427B685B6C9A4201D0C1
:10194000012300E0002318462C37BD4690BD00BFA0
:10195000000400588C80C11180B584B000AF78605D
:1019600039607B68002B01D101232AE1974B1B686A
:1019700003F007023B689A421BD29449934B1B68C1
:1019800023F007023B6813430B60FEF7BBFDF860D2
:1019900008E0FEF7B7FD0246FB68D31A022B01D917
:1019A00003230EE1894B1B6803F007023B689A4250
:1019B000EFD17B681B6803F00203002B16D07B6815
:1019C0009B681846FFF705FBFEF79CFDF86008E0F2
:1019D000FEF798FD0246FB68D31A022B01D90323B8
:1019E000EFE0FFF7FFFB0346002BF1D07B681B689D
:1019F00003F02003002B16D07B685B691846FFF7C5
:101A0000FCFAFEF77FFDF86008E0FEF77BFD02467A
:101A1000FB68D31A022B01D90323D2E0FFF7F4FBB2
:101A20000346002BF1D07B681B6803F04003002BBA
:101A300016D07B689B691846FFF7F5FAFEF762FD42
:101A4000F86008E0FEF75EFD0246FB68D31A022B41
:101A500001D90323B5E0FFF7EAFB0346002BF1D0E1
:101A60007B681B6803F00403002B16D07B68DB68DF
:101A70001846FFF7EFFAFEF745FDF86008E0FEF7BD
:101A800041FD0246FB68D31A022B01D9032398E0DB
:101A9000FFF7E0FB0346002BF1D07B681B6803F0E7
:101AA0000803002B17D07B681B69DB001846FFF783
:101AB000E5FAFEF727FDF86008E0FEF723FD024691
:101AC000FB68D31A022B01D903237AE0FFF7D4FB7A
:101AD0000346002BF1D07B681B6803F00103002B49
:101AE00043D07B685B68022B06D1FFF785F803467D
:101AF000002B1ED1012364E07B685B68032B06D1B9
:101B0000FFF72DFB0346002B13D1012359E07B681F
:101B10005B68002B06D1FFF7EDF90346002B08D1D7
:101B200001234EE0FFF798F80346002B01D1012373
:101B300047E07B685B681846FFF72BFAFEF7E2FC8C
:101B4000F8600AE0FEF7DEFC0246FB68D31A41F2B9
:101B50008832934201D9032333E0FFF72EFA02467D
:101B60007B685B689B009A42ECD1184B1B6803F0C2
:101B700007023B689A421BD91449144B1B6823F097
:101B800007023B6813430B60FEF7BCFCF86008E0FB
:101B9000FEF7B8FC0246FB68D31A022B01D90323D7
:101BA0000FE00A4B1B6803F007023B689A42EFD133
:101BB00006F062F8FEF7B2FC0346184605F080FF17
:101BC000034618461037BD4680BD00BF0040005890
:101BD00090B585B000AFFFF7F0F978607B68002B17
:101BE0000AD1FFF7ACF903461B0903F00F032A4A99
:101BF00052F82330FB604AE07B68042B02D1274B6C
:101C0000FB6044E07B68082B0AD1FEF7A7FF034680
:101C1000012B02D1214BFB6039E0214BFB6036E008
:101C2000FFF7D4FA38603B68022B02D0032B03D0B5
:101C30000DE01A4BBB6015E0FEF790FF0346012B49
:101C400002D1164BBB600DE0154BBB600AE0FFF7FD
:101C500076F903461B0903F00F030F4A52F82330AD
:101C6000BB6000BFFFF78DFA0246BB6803FB02F4BE
:101C7000FFF7A0FA03461B090133B4FBF3F4FFF7A7
:101C80008DFA03465B0F0133B4FBF3F3FB60FB6893
:101C900018461437BD4690BDC48100080024F400E6
:101CA0000048E80198B500AFFFF792FF0446FFF740
:101CB000F9F903461B0903F00F03034A52F82330D6
:101CC000B4FBF3F3184698BD6481000898B500AFE3
:101CD000FFF7E8FF0446FFF70CFA03461B0A03F080
:101CE0000703044A52F8233003F01F0324FA03F3D6
:101CF000184698BDA481000898B500AFFFF7D2FF41
:101D00000446FFF702FA0346DB0A03F00703044A1E
:101D100052F8233003F01F0324FA03F3184698BD4A
:101D2000A481000880B582B000AF786039607B681C
:101D30006F221A60FFF741F902467B685A60FFF78D
:101D4000B1F902467B689A60FFF7D3F902467B68D7
:101D5000DA60FFF7DAF902467B681A61FFF7AEF93D
:101D600002467B685A61FFF7B6F902467B689A61C2
:101D7000044B1B6803F007023B681A6000BF08377A
:101D8000BD4680BD0040005890B585B000AF78607A
:101D90007B68B02B03D9154BDB6AFB6007E07B68DF
:101DA0001B0903F00F03114A52F82330FB60FFF7C1
:101DB00092F903461B0903F00F030D4A52F8233032
:101DC000FA68B2FBF3F3BB60BB680A4AA2FB0323C9
:101DD0009C0CFEF7B5FE03461946204600F00CF8B1
:101DE000034618461437BD4690BD00BFC4810008A5
:101DF0006481000883DE1B4390B593B000AF786028
:101E00003960394B07F128040FCB84E80F00374ABB
:101E100007F11C0307CA83E80700354B07F10C04E0
:101E20000FCB84E80F0000237B643B68B3F5007F91
:101E30001CD100233B6415E03B6C9B0007F148027A
:101E4000134453F8202C7B689A4208D33B6C9B00C8
:101E500007F14802134453F83C3C7B6422E03B6C9E
:101E600001333B643B6C032BE6D91BE00023FB638F
:101E700015E0FB6B9B0007F14802134453F82C2C30
:101E80007B689A4208D3FB6B9B0007F1480213441E
:101E900053F83C3C7B6405E0FB6B0133FB63FB6B5D
:101EA000022BE6D91349134B1B6823F007027B6C06
:101EB00013430B60FEF726FBB86308E0FEF722FB36
:101EC0000246BB6BD31A022B01D9032307E0094B4F
:101ED0001B6803F007027B6C9A42EFD1002318467F
:101EE0004C37BD4690BD00BFE8800008F880000870
:101EF000048100080040005880B400AF4FF0B043A8
:101F0000D3F8903003F00103012B01D1012300E04D
:101F100000231846BD465DF8047B704780B400AFCF
:101F20004FF0B043D3F8903003F00203022B01D1FD
:101F3000012300E000231846BD465DF8047B70478E
:101F400080B483B000AF78604FF0B0414FF0B04341
:101F5000D3F8943023F440427B681343C1F89430A3
:101F600000BF0C37BD465DF8047B704780B483B07A
:101F700000AF78604FF0B0414FF0B0435B6A23F0A0
:101F800003027B6813434B6200BF0C37BD465DF80C
:101F9000047B704780B483B000AF78604FF0B041ED
:101FA0004FF0B0435B6A23F030027B6813434B620F
:101FB00000BF0C37BD465DF8047B704780B483B02A
:101FC00000AF78604FF0B0414FF0B043D3F88830A5
:101FD00023F003027B681343C1F8883000BF0C373D
:101FE000BD465DF8047B704780B483B000AF786075
:101FF0004FF0B0414FF0B043D3F8883023F4406243
:102000007B681343C1F8883000BF0C37BD465DF8CC
:10201000047B704780B483B000AF78604FF0B0416C
:102020004FF0B043D3F888207B681B0903F47F236B
:10203000DB431A407B681B0103F47F231343C1F881
:10204000883000BF0C37BD465DF8047B704780B414
:1020500083B000AF78604FF0B0414FF0B043D3F899
:1020600088207B681B0C1B04DB431A407B681B0425
:102070001343C1F8883000BF0C37BD465DF8047BC0
:10208000704780B483B000AF78604FF0B0414FF03C
:10209000B043D3F8883023F440027B681343C1F87F
:1020A000883000BF0C37BD465DF8047B704780B4B4
:1020B00083B000AF78604FF0B0414FF0B043D3F839
:1020C000883023F040427B681343C1F8883000BF5A
:1020D0000C37BD465DF8047B704780B483B000AF19
:1020E00078604FF0B0414FF0B043D3F8883023F020
:1020F00040627B681343C1F8883000BF0C37BD468F
:102100005DF8047B704780B582B000AF7860786876
:10211000FFF7E3FF00BF0837BD4680BD80B483B042
:1021200000AF78604FF0B0414FF0B043D3F8883043
:1021300023F040527B681343C1F8883000BF0C374E
:10214000BD465DF8047B704780B483B000AF786013
:102150004FF0B0414FF0B043D3F8903023F44072C9
:102160007B681343C1F8903000BF0C37BD465DF863
:10217000047B704780B400AF4FF0B043D3F8903089
:1021800003F440731846BD465DF8047B704780B485
:1021900000AF4FF0B0424FF0B043D3F8903043F46B
:1021A0008033C2F8903000BFBD465DF8047B7047B5
:1021B00080B400AF4FF0B0424FF0B043D3F890304E
:1021C00023F48033C2F8903000BFBD465DF8047B35
:1021D000704780B400AF4FF0B0424FF0B0431B687F
:1021E00043F08063136000BFBD465DF8047B704719
:1021F00080B400AF4FF0B0424FF0B0431B6823F003
:102200008063136000BFBD465DF8047B704780B4F7
:1022100000AF4FF0B0431B6803F00063B3F1006FF1
:1022200001D1012300E000231846BD465DF8047B80
:10223000704780B588B000AF78600023FB7700233B
:10224000BB777B681B6803F04003002B33D07B68AF
:102250001B6BB3F5800F0CD0B3F5800F02D8002BA9
:1022600010D017E0B3F5000F17D0B3F5400F16D01C
:1022700010E04FF0B0424FF0B043DB6843F48033DE
:10228000D3600DE07B680433184600F047F903463D
:10229000FB7705E00123FB7702E000BF00E000BF11
:1022A000FB7F002B05D17B681B6B1846FFF7E9FE0F
:1022B00001E0FB7FBB777B681B6803F40063002BA6
:1022C00046D0FFF757FFB8617B681A6CBB699A422A
:1022D0003CD0FEF725FCBB69002B05D17B681B6C4D
:1022E0001846FFF731FF2EE04FF0B043D3F890309F
:1022F0007B61FFF74CFFFFF75BFF7B6923F44072C4
:102300007B681B6C13437B614FF0B0427B69C2F862
:102310009030FFF7F1FD0346012B14D1FEF7F2F8E0
:1023200038610BE0FEF7EEF802463B69D31A41F242
:102330008832934202D90323FB7704E0FFF7EEFDD6
:102340000346012BEED1FB7FBB7701E0FB7FBB7720
:102350007B681B6803F00103002B04D07B689B693A
:102360001846FFF72BFE7B681B6803F00203002B67
:1023700004D07B68DB691846FFF736FE7B681B6874
:1023800003F01003002B04D07B689B6A1846FFF70C
:102390005EFE7B681B6803F02003002B04D07B6883
:1023A000DB6A1846FFF753FE7B681B6803F00403E3
:1023B000002B04D07B681B6A1846FFF72BFE7B6856
:1023C0001B6803F00803002B04D07B685B6A184687
:1023D000FFF720FE7B681B6803F48073002B22D07C
:1023E0007B685B6B1846FFF78EFE7B685B6BB3F117
:1023F000006F07D14FF0B0424FF0B043DB6843F0BD
:102400008073D3607B685B6BB3F1806F0BD17B68AB
:102410000433184600F0DDF80346FB77FB7F002B02
:1024200001D0FB7FBB777B681B6803F40073002B34
:102430002BD07B689B6BB3F1804F08D07B689B6B84
:10244000B3F1004F03D07B689B6B002B05D17B68F9
:102450009B6B1846FFF72BFE0AE07B689B6B23F013
:102460008053FB600020FFF722FEF868FFF735FE7F
:102470007B689B6BB3F1C05F07D14FF0B0424FF068
:10248000B043DB6843F08073D3607B681B6803F460
:102490008063002B22D07B68DB6B1846FFF73EFE83
:1024A0007B68DB6BB3F1005F07D14FF0B0424FF0B8
:1024B000B043DB6843F48033D3607B68DB6BB3F1FC
:1024C000805F0BD17B680433184600F0DDF80346CB
:1024D000FB77FB7F002B01D0FB7FBB777B681B6802
:1024E00003F48053002B04D07B685B6C1846FFF725
:1024F00027FD7B681B6803F40053002B09D07B6821
:10250000DB6C1846FFF746FD7B689B6C1846FFF7AF
:102510002DFDBB7F18462037BD4680BD80B584B0F9
:1025200000AF78600023FB73FFF762FEFDF7EAFF60
:10253000B86009E0FDF7E6FF0246BB68D31A022B3C
:1025400002D90323FB7304E0FFF761FE0346002B6F
:10255000F0D1FB7B002B37D14FF0B0414FF0B043AF
:102560001B6923F4FE427B681B681B0213430B614B
:102570004FF0B0414FF0B0431B6923F478127B68F1
:102580005B6813430B61FFF724FEFDF7BBFFB860E8
:1025900009E0FDF7B7FF0246BB68D31A022B02D948
:1025A0000323FB7304E0FFF732FE0346012BF0D157
:1025B000FB7B002B08D14FF0B0414FF0B0431A69BC
:1025C0007B681B6913430B61FB7B18461037BD46C4
:1025D00080BD80B584B000AF78600023FB73FFF747
:1025E00007FEFDF78FFFB86009E0FDF78BFF02469D
:1025F000BB68D31A022B02D90323FB7304E0FFF755
:1026000006FE0346002BF0D1FB7B002B37D14FF0A9
:10261000B0414FF0B0431B6923F4FE427B681B6856
:102620001B0213430B614FF0B0414FF0B0431B69E5
:1026300023F060627B689B6813430B61FFF7C9FD61
:10264000FDF760FFB86009E0FDF75CFF0246BB687C
:10265000D31A022B02D90323FB7304E0FFF7D7FD43
:102660000346012BF0D1FB7B002B08D14FF0B0418A
:102670004FF0B0431A697B681B6913430B61FB7B06
:1026800018461037BD4680BD80B584B000AF786075
:102690000023FB73FFF7ACFDFDF734FFB86009E0E2
:1026A000FDF730FF0246BB68D31A022B02D9032381
:1026B000FB7304E0FFF7ABFD0346002BF0D1FB7B7F
:1026C000002B37D14FF0B0414FF0B0431B6923F4DA
:1026D000FE427B681B681B0213430B614FF0B04145
:1026E0004FF0B0431B6923F060427B68DB68134303
:1026F0000B61FFF76EFDFDF705FFB86009E0FDF720
:1027000001FF0246BB68D31A022B02D90323FB73D5
:1027100004E0FFF77CFD0346012BF0D1FB7B002B8F
:1027200008D14FF0B0414FF0B0431A697B681B6984
:1027300013430B61FB7B18461037BD4680BD80B547
:1027400082B000AF78607B68002B01D101231DE0CF
:102750007B6893F83D30DBB2002B06D17B6800220A
:1027600083F83C20786805F069FB7B68022283F8D7
:102770003D207B681A687B6804331946104600F0D8
:10278000A5F97B68012283F83D200023184608370D
:10279000BD4680BD80B485B000AF78607B68022202
:1027A00083F83D207B681B689A680E4B1340FB60E2
:1027B000FB68062B0BD0FB68B3F5803F07D07B6826
:1027C0001B687A681268126842F001021A607B681E
:1027D000012283F83D20002318461437BD465DF8DA
:1027E000047B70470700010080B485B000AF7860BB
:1027F0007B681B687A681268D26842F00102DA606E
:102800007B681B689A680C4B1340FB60FB68062BC7
:102810000BD0FB68B3F5803F07D07B681B687A68F4
:102820001268126842F001021A6000231846143739
:10283000BD465DF8047B70470700010080B582B09B
:1028400000AF78607B681B681B6903F00203022BF2
:1028500022D17B681B68DB6803F00203022B1BD1CB
:102860007B681B686FF002021A617B6801221A778D
:102870007B681B689B6903F00303002B03D0786817
:1028800000F005F905E0786800F0F7F8786800F0E6
:1028900008F97B6800221A777B681B681B6903F0C4
:1028A0000403042B22D17B681B68DB6803F004035C
:1028B000042B1BD17B681B686FF004021A617B68D4
:1028C00002221A777B681B689B6903F44073002B14
:1028D00003D0786800F0DBF805E0786800F0CDF808
:1028E000786800F0DEF87B6800221A777B681B6846
:1028F0001B6903F00803082B22D17B681B68DB6887
:1029000003F00803082B1BD17B681B686FF00802DB
:102910001A617B6804221A777B681B68DB6903F005
:102920000303002B03D0786800F0B1F805E0786865
:1029300000F0A3F8786800F0B4F87B6800221A77FA
:102940007B681B681B6903F01003102B22D17B6886
:102950001B68DB6803F01003102B1BD17B681B681E
:102960006FF010021A617B6808221A777B681B6877
:10297000DB6903F44073002B03D0786800F087F81C
:1029800005E0786800F079F8786800F08AF87B68EC
:1029900000221A777B681B681B6903F00103012B77
:1029A0000ED17B681B68DB6803F00103012B07D1A4
:1029B0007B681B686FF001021A61786805F044F8C3
:1029C0007B681B681B6903F08003802B0ED17B683A
:1029D0001B68DB6803F08003802B07D17B681B68D2
:1029E0006FF080021A61786800F0DEF87B681B687F
:1029F0001B6903F48073B3F5807F0ED17B681B687D
:102A0000DB6803F08003802B07D17B681B686FF4C1
:102A100080721A61786800F0D1F87B681B681B69C6
:102A200003F04003402B0ED17B681B68DB6803F08A
:102A30004003402B07D17B681B686FF040021A618E
:102A4000786800F038F87B681B681B6903F0200386
:102A5000202B0ED17B681B68DB6803F02003202B42
:102A600007D17B681B686FF020021A61786800F05C
:102A700091F800BF0837BD4680BD80B483B000AF79
:102A8000786000BF0C37BD465DF8047B704780B4AA
:102A900083B000AF786000BF0C37BD465DF8047BA3
:102AA000704780B483B000AF786000BF0C37BD467C
:102AB0005DF8047B704780B483B000AF786000BFDE
:102AC0000C37BD465DF8047B7047000080B485B0CC
:102AD00000AF786039607B681B68FB607B682A4ABE
:102AE000934203D07B68B3F1804F08D1FB6823F099
:102AF0007003FB603B685B68FA681343FB607B68AC
:102B0000214A93420BD07B68B3F1804F07D07B689A
:102B10001E4A934203D07B681D4A934208D1FB684A
:102B200023F44073FB603B68DB68FA681343FB6087
:102B3000FB6823F080023B685B691343FB607B68A2
:102B4000FA681A603B689A687B68DA623B681A68C0
:102B50007B689A627B680C4A934207D07B680B4A79
:102B6000934203D07B680A4A934203D13B681A69B7
:102B70007B681A637B6801225A6100BF1437BD4627
:102B80005DF8047B704700BF002C01400044014009
:102B90000048014080B483B000AF786000BF0C37BC
:102BA000BD465DF8047B704780B483B000AF7860A9
:102BB00000BF0C37BD465DF8047B704780B483B01E
:102BC00000AF786000BF0C37BD465DF8047B7047EE
:102BD00080B483B000AF78604FF0B043D3F8882062
:102BE0007B68134018460C37BD465DF8047B704780
:102BF00080B483B000AF78604FF0B043D3F8882042
:102C00007B68134018460C37BD465DF8047B70475F
:102C100080B582B000AF78607B68002B01D10123C2
:102C200042E07B68D3F88030002B06D17B6800221D
:102C300083F87C20786805F09BF97B682422C3F830
:102C400080207B681B687A681268126822F0010293
:102C50001A60786800F058FA0346012B01D101236D
:102C600022E07B689B6A002B02D0786801F09CFA16
:102C70007B681B687A681268526822F490425A6036
:102C80007B681B687A681268926822F02A029A6050
:102C90007B681B687A681268126842F001021A6049
:102CA000786801F023FB034618460837BD4680BD0F
:102CB00080B58AB002AFF860B9603B601346FB8014
:102CC000FB68D3F88030202B40F08280BB68002B5B
:102CD00002D0FB88002B01D101237AE0FB6893F836
:102CE0007C30012B01D1022373E0FB68012283F8C1
:102CF0007C20FB680022C3F88820FB682122C3F8EF
:102D00008020FDF7FFFB7861FB68FA88A3F8542068
:102D1000FB68FA88A3F85620FB689B68B3F5805FD0
:102D200008D1FB681B69002B04D10023FB61BB6841
:102D3000BB6103E0BB68FB610023BB612BE03B6828
:102D400000937B6900228021F86801F017FB03469D
:102D5000002B01D003233CE0FB69002B0AD1FB6868
:102D60001B68BA691288C2F308029A62BB6902330F
:102D7000BB6107E0FB681B68FA6912789A62FB691D
:102D80000133FB61FB68B3F856309BB2013B9AB24A
:102D9000FB68A3F85620FB68B3F856309BB2002BB3
:102DA000CDD13B6800937B6900224021F86801F097
:102DB000E5FA0346002B01D003230AE0FB6820223A
:102DC000C3F88020FB68002283F87C20002300E009
:102DD000022318462037BD4680BD000080B588B06C
:102DE00000AF78607B681B68DB69FB617B681B68F0
:102DF0001B68BB617B681B689B687B61FA6940F656
:102E00000F0313403B613B69002B18D1FB6903F0B2
:102E10002003002B13D0BB6903F02003002B04D147
:102E20007B6903F08053002B09D07B68DB6E002B9D
:102E300000F045817B68DB6E786898473FE13B692D
:102E4000002B00F0E8807A69A14B1340002B05D1DC
:102E5000BA69A04B1340002B00F0DD80FB6903F042
:102E60000103002B10D0BB6903F48073002B0BD03F
:102E70007B681B6801221A627B68D3F8883043F0B4
:102E800001027B68C3F88820FB6903F00203002B72
:102E900010D07B6903F00103002B0BD07B681B680B
:102EA00002221A627B68D3F8883043F004027B6800
:102EB000C3F88820FB6903F00403002B10D07B6962
:102EC00003F00103002B0BD07B681B6804221A62FD
:102ED0007B68D3F8883043F002027B68C3F888200F
:102EE000FB6903F00803002B15D0BB6903F0200336
:102EF000002B04D17A69764B1340002B0BD07B68F2
:102F00001B6808221A627B68D3F8883043F00802F5
:102F10007B68C3F88820FB6903F40063002B11D0A1
:102F2000BB6903F08063002B0CD07B681B684FF4F7
:102F300000621A627B68D3F8883043F020027B6815
:102F4000C3F888207B68D3F88830002B00F0B98064
:102F5000FB6903F02003002B11D0BB6903F02003B1
:102F6000002B04D17B6903F08053002B07D07B68D2
:102F7000DB6E002B03D07B68DB6E786898477B683C
:102F8000D3F88830FB607B681B689B6803F04003C4
:102F9000402B04D0FB6803F02803002B31D0786865
:102FA00001F06CFA7B681B689B6803F04003402BC0
:102FB00023D17B681B687A681268926822F040020D
:102FC0009A607B689B6F002B13D07B689B6F424A93
:102FD0009A637B689B6F1846FDF78AFB0346002BBC
:102FE00017D07B689B6F9B6B7A68926F10469847EF
:102FF0000FE0786800F07CF80BE0786800F078F873
:1030000007E0786800F074F87B680022C3F8882035
:1030100057E000BF55E0FB6903F48013002B0DD08F
:103020007B6903F48003002B08D07B681B684FF496
:1030300080121A62786801F074FA45E0FB6903F0C7
:103040008003002B12D0BB6903F08003002B04D156
:103050007B6903F40003002B08D07B681B6F002BF7
:1030600031D07B681B6F786898472CE0FB6903F0D0
:103070004003002B08D0BB6903F04003002B03D0B2
:10308000786801F034FA1FE0FB6903F40003002BB9
:1030900008D0BB6903F08043002B03D0786801F0AF
:1030A00054FA11E0FB6903F08073002B0CD0BB696C
:1030B000002B09DA786801F03EFA00BF04E000BF97
:1030C00002E000BF00E000BF2037BD4680BD00BF6A
:1030D0000100001020010004C344000880B483B044
:1030E00000AF786000BF0C37BD465DF8047B7047C9
:1030F00080B483B000AF786000BF0C37BD465DF888
:10310000047B7047000000002DE9F0438BB000AF56
:1031100078600023FB610023FB7600237B617B68E2
:103120009A687B681B691A437B685B691A437B68F2
:10313000DB6913437B627B685B6E7A6A13437B6255
:103140007B681A687B681B681968A44B0B40796A16
:103150000B4313607B681B687A681268526822F41C
:1031600040517A68D2680A435A607B689B697B62E7
:103170007B681B689A4A934204D07B681B6A7A6A10
:1031800013437B627B681A687B681B689B6823F02B
:103190006E4323F43063796A0B4393607B681B684A
:1031A0007A681268D26A22F00F017A68526A0A437A
:1031B000DA627B681B688B4A934226D10320FFF7B3
:1031C00007FD0346032B1BD801A252F823F000BFD2
:1031D000E1310008F1310008E9310008F931000857
:1031E000012387F8233042E0022387F823303EE0B2
:1031F000042387F823303AE0082387F8233036E0A9
:10320000102387F8233000BF31E07B681B68744AC5
:10321000934229D14FF44060FFF7EAFC0346B3F52F
:10322000806F14D0B3F5806F02D8002B07D016E062
:10323000B3F5006F07D0B3F5406F0CD00FE000235B
:1032400087F8233013E0022387F823300FE00423AC
:1032500087F823300BE0082387F8233007E010239A
:1032600087F8233000BF02E0102387F823307B6803
:103270001B685B4A934240F0138497F82330082B75
:1032800000F2738101A252F823F000BFB1320008AE
:103290006B350008533300086B3500081B340008F9
:1032A0006B3500086B3500086B350008BD3400082D
:1032B000FEF70CFD02467B685B6A002B44D07B68FE
:1032C0005B6A012B3ED07B685B6A022B38D07B683F
:1032D0005B6A032B32D07B685B6A042B2CD07B6843
:1032E0005B6A052B26D07B685B6A062B20D07B6847
:1032F0005B6A072B1AD07B685B6A082B14D07B684B
:103300005B6A092B0ED07B685B6A0A2B08D07B684E
:103310005B6A0B2B02D14FF4807316E0012314E09B
:10332000802312E0402310E020230EE010230CE065
:103330000C230AE00A2308E0082306E0062304E041
:10334000042302E0022300E00123B2FBF3F37B61DC
:103350000EE17B685B6A002B5CD07B685B6A012BAB
:1033600056D07B685B6A022B50D07B685B6A032B6C
:1033700032D07B685B6A042B2CD07B685B6A052BA0
:1033800026D07B685B6A062B20D07B685B6A072BA4
:103390001AD07B685B6A082B14D07B685B6A092BA8
:1033A0000ED07B685B6A0A2B08D07B685B6A0B2BAC
:1033B00002D14FF224432EE00B4B2CE00B4B2AE0C2
:1033C0000B4B28E00B4B26E00B4B24E00B4B22E091
:1033D0000B4B20E00B4B1EE00B4B1CE0F369FFCFC7
:1033E00000800040003801400024F40048E801005B
:1033F00090D0030020A1070040420F005558140050
:10340000006A180080841E00AAB02800A74B02E0C2
:10341000A74B00E0A74B7B61AAE0FEF7D9FB024671
:103420007B685B6A002B44D07B685B6A012B3ED0D3
:103430007B685B6A022B38D07B685B6A032B32D0D7
:103440007B685B6A042B2CD07B685B6A052B26D0DB
:103450007B685B6A062B20D07B685B6A072B1AD0DF
:103460007B685B6A082B14D07B685B6A092B0ED0E3
:103470007B685B6A0A2B08D07B685B6A0B2B02D1E6
:103480004FF4807316E0012314E0802312E0402300
:1034900010E020230EE010230CE00C230AE00A23A6
:1034A00008E0082306E0062304E0042302E00223E8
:1034B00000E00123B2FBF3F37B6159E07B685B6AB8
:1034C000002B4ED07B685B6A012B47D07B685B6A20
:1034D000022B40D07B685B6A032B39D07B685B6A28
:1034E000042B32D07B685B6A052B2BD07B685B6A30
:1034F000062B24D07B685B6A072B1DD07B685B6A38
:10350000082B16D07B685B6A092B0FD07B685B6A3F
:103510000A2B08D07B685B6A0B2B01D1802322E049
:103520004FF400431FE04FF480731CE04FF400732E
:1035300019E04FF4806316E04FF4006313E040F6A7
:10354000AA2310E040F6CC430DE04FF480530AE08C
:1035500041F2555307E04FF4005304E04FF4804329
:1035600001E04FF400437B6102E00123FB7600BFE2
:103570007B69002B00F0EE857B685A6813465B0080
:103580001A447B699A4205D87B685B681A037B6999
:103590009A4203D20123FB7600F0DCBD97F823307A
:1035A000082B00F26A8201A252F823F0D1350008FC
:1035B0007B3A00080D3700087B3A0008FD37000809
:1035C0007B3A00087B3A00087B3A0008273900085C
:1035D000FEF77CFB38613B6918464FF000017B68C1
:1035E0005B6A002B6DD07B685B6A012B64D07B68C3
:1035F0005B6A022B55D07B685B6A032B4CD07B68DF
:103600005B6A042B43D07B685B6A052B3AD07B68EE
:103610005B6A062B31D07B685B6A072B28D07B68FE
:103620005B6A082B1FD07B685B6A092B16D07B680E
:103630005B6A0A2B0DD07B685B6A0B2B04D14FF4BD
:1036400080734FF0000440E04FF001034FF000049E
:103650003BE04FF080034FF0000436E04FF04003B2
:103660004FF0000431E04FF020034FF000042CE055
:103670004FF010034FF0000427E04FF00C034FF021
:10368000000422E04FF00A034FF000041DE04FF069
:1036900008034FF0000418E04FF006034FF0000459
:1036A00013E04FF004034FF000040EE000093D006A
:1036B00000127A000024F4004FF002034FF00004DF
:1036C00003E04FF001034FF000041A462346FCF7D5
:1036D0005FFD03460C464FEA042949EA13694FEAA5
:1036E00003287B685B685B084FF0000418EB03005D
:1036F00049EB04017B685B684FF000041A462346DF
:10370000FCF746FD03460C46FB61B9E17B685B6A4A
:10371000002B59D07B685B6A012B51D07B685B6AB8
:10372000022B49D07B685B6A032B42D07B685B6AC3
:10373000042B3AD07B685B6A052B32D07B685B6ACE
:10374000062B2BD07B685B6A072B23D07B685B6AD8
:10375000082B1BD07B685B6A092B13D07B685B6AE4
:103760000A2B0BD07B685B6A0B2B03D1A84B4FF065
:1037700000042CE0A74B4FF0000428E0A64B4FF0CC
:10378000000424E0A54B4FF0000420E0A44B4FF0D0
:1037900000041CE0A34B4FF0000418E098A418CCE0
:1037A00015E0A14B4FF0000411E0A04B4FF00004D6
:1037B0000DE095A418CC0AE09D4B4FF0000406E004
:1037C0009C4B4FF0000402E0924B4FF000047A68EB
:1037D0005268520811464FF000025D1844EB020691
:1037E000284631467B685B684FF000041A46234642
:1037F000FCF7CEFC03460C46FB6141E1FEF7E8F91D
:1038000038613B6918464FF000017B685B6A002B0A
:1038100067D07B685B6A012B5ED07B685B6A022B9A
:1038200055D07B685B6A032B4CD07B685B6A042BAA
:1038300043D07B685B6A052B3AD07B685B6A062BBA
:1038400031D07B685B6A072B28D07B685B6A082BCA
:103850001FD07B685B6A092B16D07B685B6A0A2BDA
:103860000DD07B685B6A0B2B04D14FF480734FF053
:1038700000043AE04FF001034FF0000435E04FF050
:1038800080034FF0000430E04FF040034FF000049D
:103890002BE04FF020034FF0000426E04FF0100320
:1038A0004FF0000421E04FF00C034FF000041CE047
:1038B0004FF00A034FF0000417E04FF008034FF0F9
:1038C000000412E04FF006034FF000040DE04FF04B
:1038D00004034FF0000408E04FF002034FF000042F
:1038E00003E04FF001034FF000041A462346FCF7B3
:1038F0004FFC03460C46260246EA13661D027B680F
:103900005B685B084FF00004E81846EB04017B6835
:103910005B684FF000041A462346FCF739FC034667
:103920000C46FB61ACE07B685B6A002B00F08A8090
:103930007B685B6A012B5BD07B685B6A022B52D091
:103940007B685B6A032B4AD07B685B6A042B41D09F
:103950007B685B6A052B39D07B685B6A062B31D0AC
:103960007B685B6A072B28D07B685B6A082B1FD0BB
:103970007B685B6A092B16D07B685B6A0A2B0DD0CB
:103980007B685B6A0B2B04D14FF400434FF00004BB
:103990005CE04FF400034FF0000457E04FF4803335
:1039A0004FF0000452E04FF400334FF000044DE0BC
:1039B0004FF480234FF0000448E04FF400234FF011
:1039C000000443E01C4B4FF000043FE01B4B4FF062
:1039D00000043BE04FF480134FF0000436E0184B36
:1039E0004FF0000432E04FF400134FF000042DE0DC
:1039F0004FF480034FF0000428E000BFAFF30080D5
:103A0000005558140000000000AAB0280000000073
:103A10000024F400000024F40048E8010090D003E2
:103A20000020A1070040420F00006A180080841E99
:103A30000000093D0000127A00AA0A0000CC0C0028
:103A4000005515004FF400034FF000047A685268E7
:103A5000520811464FF000025D1844EB020628465A
:103A600031467B685B684FF000041A462346FCF73A
:103A70008FFB03460C46FB6102E00123FB7600BF8F
:103A8000FB69B3F5407F08D3FB69B3F5801F04D20F
:103A90007B681B68FA69DA605CE30123FB7659E313
:103AA0007B68DB69B3F5004F40F0A78197F82330BE
:103AB000013B072B00F2818101A252F823F000BFE5
:103AC000E13A0008993B0008BB3D0008413C000872
:103AD000BB3D0008BB3D0008BB3D0008F93C0008A9
:103AE000FEF70AF938617B685B6A002B44D07B687B
:103AF0005B6A012B3ED07B685B6A022B38D07B6807
:103B00005B6A032B32D07B685B6A042B2CD07B680A
:103B10005B6A052B26D07B685B6A062B20D07B680E
:103B20005B6A072B1AD07B685B6A082B14D07B6812
:103B30005B6A092B0ED07B685B6A0A2B08D07B6816
:103B40005B6A0B2B02D14FF4807316E0012314E063
:103B5000802312E0402310E020230EE010230CE02D
:103B60000C230AE00A2308E0082306E0062304E009
:103B7000042302E0022300E001233A69B2FBF3F3DD
:103B80005A007B685B685B081A447B685B68B2FB21
:103B9000F3F39BB2FB6113E17B685B6A002B43D0BC
:103BA0007B685B6A012B3DD07B685B6A022B37D058
:103BB0007B685B6A032B31D07B685B6A042B2BD05C
:103BC0007B685B6A052B25D07B685B6A062B1FD060
:103BD0007B685B6A072B19D07B685B6A082B13D064
:103BE0007B685B6A092B0DD07B685B6A0A2B07D068
:103BF0007B685B6A0B2B01D18C4B16E08C4B14E07D
:103C00008C4B12E08C4B10E08C4B0EE08C4B0CE09C
:103C10008C4B0AE08C4B08E08C4B06E08C4B04E0AC
:103C20008C4B02E08C4B00E0814B7A685268520862
:103C30001A447B685B68B2FBF3F39BB2FB61BFE0A5
:103C4000FDF7C6FF38617B685B6A002B44D07B6858
:103C50005B6A012B3ED07B685B6A022B38D07B68A5
:103C60005B6A032B32D07B685B6A042B2CD07B68A9
:103C70005B6A052B26D07B685B6A062B20D07B68AD
:103C80005B6A072B1AD07B685B6A082B14D07B68B1
:103C90005B6A092B0ED07B685B6A0A2B08D07B68B5
:103CA0005B6A0B2B02D14FF4807316E0012314E002
:103CB000802312E0402310E020230EE010230CE0CC
:103CC0000C230AE00A2308E0082306E0062304E0A8
:103CD000042302E0022300E001233A69B2FBF3F37C
:103CE0005A007B685B685B081A447B685B68B2FBC0
:103CF000F3F39BB2FB6163E07B685B6A002B4FD000
:103D00007B685B6A012B48D07B685B6A022B41D0E1
:103D10007B685B6A032B3AD07B685B6A042B33D0E9
:103D20007B685B6A052B2CD07B685B6A062B25D0F1
:103D30007B685B6A072B1ED07B685B6A082B17D0F9
:103D40007B685B6A092B10D07B685B6A0A2B09D001
:103D50007B685B6A0B2B02D14FF4807322E04FF437
:103D600080331FE04FF400731CE04FF4806319E0D0
:103D70004FF4006316E04FF4805313E041F25453C4
:103D800010E041F698130DE04FF400530AE042F6BC
:103D9000AA2307E04FF4804304E04FF4004301E01E
:103DA0004FF480337A68526852081A447B685B6823
:103DB000B2FBF3F39BB2FB6102E00123FB7600BF91
:103DC000FB690F2B16D9FB69B3F5803F12D2FB6953
:103DD0009BB223F00F03FB81FB695B089BB203F0EE
:103DE00007039AB2FB891343FB817B681B68FA893E
:103DF000DA60AFE10123FB76ACE197F82330013BB9
:103E0000072B00F2968101A252F823F05D3E0008D4
:103E1000133F000833410008BD3F0008334100084C
:103E200033410008334100087340000848E80100AE
:103E30000048E80190D0030020A1070040420F0095
:103E400080841E00AAB0280000D4300000093D0084
:103E50005461510000127A000024F400FDF74CFF79
:103E600038617B685B6A002B44D07B685B6A012BFE
:103E70003ED07B685B6A022B38D07B685B6A032B81
:103E800032D07B685B6A042B2CD07B685B6A052B85
:103E900026D07B685B6A062B20D07B685B6A072B89
:103EA0001AD07B685B6A082B14D07B685B6A092B8D
:103EB0000ED07B685B6A0A2B08D07B685B6A0B2B91
:103EC00002D14FF4807316E0012314E0802312E046
:103ED000402310E020230EE010230CE00C230AE026
:103EE0000A2308E0082306E0062304E0042302E096
:103EF000022300E001233A69B2FBF3F27B685B68BE
:103F00005B081A447B685B68B2FBF3F39BB2FB610E
:103F100012E17B685B6A002B44D07B685B6A012BF3
:103F20003ED07B685B6A022B38D07B685B6A032BD0
:103F300032D07B685B6A042B2CD07B685B6A052BD4
:103F400026D07B685B6A062B20D07B685B6A072BD8
:103F50001AD07B685B6A082B14D07B685B6A092BDC
:103F60000ED07B685B6A0A2B08D07B685B6A0B2BE0
:103F700002D14FF2244316E0804B14E0804B12E054
:103F8000804B10E0804B0EE0804B0CE0804B0AE051
:103F9000804B08E0804B06E0804B04E0804B02E061
:103FA000804B00E0754B7A68526852081A447B686F
:103FB0005B68B2FBF3F39BB2FB61BDE0FDF708FE6B
:103FC00038617B685B6A002B44D07B685B6A012B9D
:103FD0003ED07B685B6A022B38D07B685B6A032B20
:103FE00032D07B685B6A042B2CD07B685B6A052B24
:103FF00026D07B685B6A062B20D07B685B6A072B28
:104000001AD07B685B6A082B14D07B685B6A092B2B
:104010000ED07B685B6A0A2B08D07B685B6A0B2B2F
:1040200002D14FF4807316E0012314E0802312E0E4
:10403000402310E020230EE010230CE00C230AE0C4
:104040000A2308E0082306E0062304E0042302E034
:10405000022300E001233A69B2FBF3F27B685B685C
:104060005B081A447B685B68B2FBF3F39BB2FB61AD
:1040700062E07B685B6A002B4ED07B685B6A012B39
:1040800047D07B685B6A022B40D07B685B6A032B5E
:1040900039D07B685B6A042B32D07B685B6A052B66
:1040A0002BD07B685B6A062B24D07B685B6A072B6E
:1040B0001DD07B685B6A082B16D07B685B6A092B76
:1040C0000FD07B685B6A0A2B08D07B685B6A0B2B7E
:1040D00001D1802322E04FF400431FE04FF48073AE
:1040E0001CE04FF4007319E04FF4806316E04FF4C6
:1040F000006313E040F6AA2310E040F6CC430DE045
:104100004FF480530AE041F2555307E04FF4005357
:1041100004E04FF4804301E04FF400437A685268B2
:1041200052081A447B685B68B2FBF3F39BB2FB61F5
:1041300002E00123FB7600BFFB690F2B08D9FB6966
:10414000B3F5803F04D27B681B68FA69DA6001E04E
:104150000123FB767B680122A3F86A207B68012299
:10416000A3F868207B680022DA667B6800221A6761
:10417000FB7E18462C37BD46BDE8F0830024F400D2
:1041800048E8010090D0030020A1070040420F0042
:1041900055581400006A180080841E00AAB0280038
:1041A00000093D0000127A0080B483B000AF78604F
:1041B0007B689B6A03F00103002B0AD07B681B68B5
:1041C0007A681268526822F400317A68D26A0A4327
:1041D0005A607B689B6A03F00203002B0AD07B685D
:1041E0001B687A681268526822F480317A68126B10
:1041F0000A435A607B689B6A03F00403002B0AD0D1
:104200007B681B687A681268526822F480217A6899
:10421000526B0A435A607B689B6A03F00803002BC9
:104220000AD07B681B687A681268526822F40041E1
:104230007A68926B0A435A607B689B6A03F01003AA
:10424000002B0AD07B681B687A681268926822F497
:1042500080517A68D26B0A439A607B689B6A03F04C
:104260002003002B0AD07B681B687A68126892686A
:1042700022F400517A68126C0A439A607B689B6A48
:1042800003F04003002B1AD07B681B687A68126821
:10429000526822F480117A68526C0A435A607B6833
:1042A0005B6CB3F5801F0AD17B681B687A68126863
:1042B000526822F4C0017A68926C0A435A607B68A3
:1042C0009B6A03F08003002B0AD07B681B687A6826
:1042D0001268526822F400217A68D26C0A435A604C
:1042E00000BF0C37BD465DF8047B704780B586B0D3
:1042F00002AF78607B680022C3F88820FCF702F9DF
:10430000F8607B681B681B6803F00803082B0ED15C
:104310006FF07E430093FB6800224FF40011786831
:1043200000F02CF80346002B01D0032322E07B6829
:104330001B681B6803F00403042B0ED16FF07E434F
:104340000093FB6800224FF48001786800F016F8B3
:104350000346002B01D003230CE07B682022C3F826
:1043600080207B682022C3F884207B68002283F8A9
:104370007C20002318461037BD4680BD80B584B030
:1043800000AFF860B9603B601346FB7162E0BB6947
:10439000B3F1FF3F5ED0FCF7B5F802463B68D21A96
:1043A000BB699A4202D8BB69002B1DD1FB681B6810
:1043B000FA681268126822F4D0721A60FB681B68EF
:1043C000FA681268926822F001029A60FB68202263
:1043D000C3F88020FB682022C3F88420FB680022F9
:1043E00083F87C20032345E0FB681B681B6803F00F
:1043F0000403002B2ED0FB681B68DB6903F4006309
:10440000B3F5006F26D1FB681B684FF400621A6297
:10441000FB681B68FA681268126822F4D0721A608E
:10442000FB681B68FA681268926822F001029A60C1
:10443000FB682022C3F88020FB682022C3F8842078
:10444000FB682022C3F88820FB68002283F87C20C8
:1044500003230FE0FB681B68DA69BB681A40BB687E
:104460009A420CBF01230023DBB21A46FB799A4221
:104470008DD0002318461037BD4680BD80B483B070
:1044800000AF78607B681B687A681268126822F453
:1044900090721A607B681A687B681B689B6823F0BF
:1044A000805323F0010393607B682022C3F88420AB
:1044B0007B680022DA6600BF0C37BD465DF8047BDE
:1044C000704780B584B000AF78607B689B6AFB6002
:1044D000FB680022A3F85E20FB680022A3F85620A8
:1044E000F868FEF705FE00BF1037BD4680BD80B5F9
:1044F00082B000AF78607B681B687A6812681268C7
:1045000022F040021A607B682022C3F880207B687A
:1045100000221A677868FEF7E1FD00BF0837BD4644
:1045200080BD80B483B000AF786000BF0C37BD465B
:104530005DF8047B704780B483B000AF786000BF43
:104540000C37BD465DF8047B704780B483B000AF84
:10455000786000BF0C37BD465DF8047B704780B4BF
:1045600085B000AF78607B6893F87C30012B01D177
:10457000022327E07B68012283F87C207B682422C9
:10458000C3F880207B681B681B68FB607B681B6826
:104590007A681268126822F001021A60FB6823F040
:1045A0000053FB607B6800225A667B681B68FA68D0
:1045B0001A607B682022C3F880207B68002283F881
:1045C0007C20002318461437BD465DF8047B7047F5
:1045D00080B584B000AF786039607B6893F87C3038
:1045E000012B01D102232DE07B68012283F87C207E
:1045F0007B682422C3F880207B681B681B68FB60F3
:104600007B681B687A681268126822F001021A60DF
:104610007B681B687A681268926822F060413A6889
:104620000A439A60786800F04FF87B681B68FA6864
:104630001A607B682022C3F880207B68002283F800
:104640007C20002318461037BD4680BD80B584B05D
:1046500000AF786039607B6893F87C30012B01D122
:1046600002232DE07B68012283F87C207B682422D2
:10467000C3F880207B681B681B68FB607B681B6835
:104680007A681268126822F001021A607B681B685F
:104690007A681268926822F060613A680A439A6008
:1046A000786800F011F87B681B68FA681A607B680C
:1046B0002022C3F880207B68002283F87C2000231E
:1046C00018461037BD4680BD80B489B000AF786011
:1046D0002F4A07F1140392E8030083E803002D4AF0
:1046E00007F10C0392E8030083E803007B685B6E2C
:1046F000002B08D17B680122A3F86A207B68012285
:10470000A3F868203DE00823FB770823BB777B688C
:104710001B689B685B0EDBB203F007037B777B684B
:104720001B689B685B0FDBB203F007033B77BB7F23
:104730003A7F07F120010A4412F80C2C02FB03F324
:104740003A7F07F120010A4412F8142C93FBF2F38C
:104750009AB27B68A3F86A20FB7F7A7F07F1200179
:104760000A4412F80C2C02FB03F37A7F07F12001B4
:104770000A4412F8142C93FBF2F39AB27B68A3F864
:10478000682000BF2437BD465DF8047B704700BF3A
:10479000148100081C81000880B485B000AFEFF3DD
:1047A0000583BB60BB68002B0FD1EFF310837B60E8
:1047B0007B68002B09D1114B1B68022B09D1EFF349
:1047C00011833B603B68002B03D06FF00503FB6057
:1047D0000CE00A4B1B68002B05D1084B01221A6024
:1047E0000023FB6002E04FF0FF33FB60FB681846DC
:1047F0001437BD465DF8047B704700BF30000020D1
:1048000080B584B000AFEFF30583BB60BB68002BBD
:104810000FD1EFF310837B607B68002B09D1114B24
:104820001B68022B09D1EFF311833B603B68002B1F
:1048300003D06FF00503FB600EE00A4B1B68012BF1
:1048400007D1084B02221A6001F0A6FE0023FB608C
:1048500002E04FF0FF33FB60FB6818461037BD469F
:1048600080BD00BF3000002080B592B004AFF8607A
:10487000B9607A6000237B61EFF305837B627B6A1A
:10488000002B40F09480EFF310833B623B6A002BD7
:1048900040F08D80484B1B68022B06D1EFF311834B
:1048A000FB61FB69002B40F08280FB68002B7ED00F
:1048B00080233B631823FB620023FB7607F11B0375
:1048C0007B634FF0FF33BB627B68002B45D07B6876
:1048D0001B68002B02D07B681B687B637B689B692D
:1048E000002B02D07B689B69FB62FB6A002B08D01F
:1048F000FB6A382B05D87B685B6803F00103002B4B
:1049000001D0002354E07B685B69002B03D07B68F7
:104910005B699B083B637B689B68002B0ED07B68C0
:10492000DB685B2B0AD97B681B69002B06D07B6890
:104930005B69002B02D00123BB6210E07B689B689F
:10494000002B0CD17B68DB68002B08D17B681B69CE
:10495000002B04D10023BB6201E00023BB62BB6AD1
:10496000012B10D17B681B697A68926802920193CF
:10497000FB6A0093BB683A6B796BF86801F044FC02
:1049800003467B6113E0BB6A002B10D13B6B9AB2EC
:1049900007F114030193FB6A0093BB68796BF86815
:1049A00001F08BFC0346012B01D000237B617B6966
:1049B00018463837BD4680BD3000002080B586B02F
:1049C00000AF7860EFF305833B613B69002B0FD1AB
:1049D000EFF31083FB60FB68002B09D10D4B1B68C4
:1049E000022B09D1EFF31183BB60BB68002B03D00E
:1049F0006FF005037B6107E000237B617B68002B80
:104A000002D0786801F094FD7B6918461837BD46DE
:104A100080BD00BF3000002080B58CB002AFF860D0
:104A2000B9607A6000237B62EFF30583BB61BB69E9
:104A3000002B70D1EFF310837B617B69002B6AD16F
:104A4000374B1B68022B05D1EFF311833B613B69A8
:104A5000002B60D1FB68002B5DD0BB68002B5AD0C7
:104A60004FF0FF333B627B68002B29D07B689B684B
:104A7000002B12D07B68DB684F2B0ED97B681B693B
:104A8000002B0AD07B685A69FB68B96801FB03F305
:104A90009A4202D301233B6214E07B689B68002B9F
:104AA00010D17B68DB68002B0CD17B681B69002B65
:104AB00008D17B685B69002B04D100233B6201E0D5
:104AC00000233B623B6A012B0CD17B681A697B682F
:104AD0009968002300930B46B968F86800F06EFEF1
:104AE000786208E03B6A002B05D10022B968F868BB
:104AF00000F0D6FE78627B6A002B0CD07B68002B1E
:104B000003D07B681B68FB6101E00023FB61F9694E
:104B1000786A01F01DFB7B6A18462837BD4680BDC8
:104B20003000002080B58AB000AFF860B9603B600B
:104B30001346FB71FB683B6200237B62EFF3058346
:104B4000FB61FB69002B0FD1EFF31083BB61BB69E5
:104B5000002B09D12B4B1B68022B2ED1EFF31183B5
:104B60007B617B69002B28D03B6A002B05D0BB689A
:104B7000002B02D03B68002B03D06FF003037B6255
:104B800039E000233B6107F110020023B968386A5D
:104B900000F0E0FF0346012B03D06FF002037B62BD
:104BA00029E03B69002B26D0174B4FF080521A604A
:104BB000BFF34F8FBFF36F8F1DE03B6A002B02D016
:104BC000BB68002B03D16FF003037B6214E000236A
:104BD0003A68B968386A00F0C3FE0346012B0BD06F
:104BE0003B68002B03D06FF001037B6204E06FF0A1
:104BF00002037B6200E000BF7B6A18462837BD468F
:104C000080BD00BF3000002004ED00E080B58AB018
:104C100000AFF860B9607A603B60FB683B620023DC
:104C20007B62EFF30583FB61FB69002B0FD1EFF390
:104C30001083BB61BB69002B09D12B4B1B68022B76
:104C40002ED1EFF311837B617B69002B28D03B6A67
:104C5000002B05D0BB68002B02D03B68002B03D093
:104C60006FF003037B6238E000233B6107F1100320
:104C70001A46B968386A01F0DDF80346012B03D003
:104C80006FF002037B6228E03B69002B25D0174BB5
:104C90004FF080521A60BFF34F8FBFF36F8F1CE04D
:104CA0003B6A002B02D0BB68002B03D16FF00303DB
:104CB0007B6213E03A68B968386A00F0DFFF0346A8
:104CC000012B0BD03B68002B03D06FF001037B62FC
:104CD00004E06FF002037B6200E000BF7B6A1846CD
:104CE0002837BD4680BD00BF3000002004ED00E045
:104CF00080B485B000AFF860B9607A60FB68074A9D
:104D00001A60BB68064A1A607B6880221A6000BF7E
:104D10001437BD465DF8047B704700BF34000020A7
:104D20009000002080B485B000AFF860B9607A6070
:104D3000FB68074A1A60BB68064A1A607B684FF432
:104D400080721A6000BF1437BD465DF8047B70475F
:104D500090020020EC02002080B483B000AF7860A5
:104D60007B6803F108027B685A607B684FF0FF3272
:104D70009A607B6803F108027B68DA607B6803F164
:104D800008027B681A617B6800221A6000BF0C373A
:104D9000BD465DF8047B704780B483B000AF786097
:104DA0007B6800221A6100BF0C37BD465DF8047BAA
:104DB000704780B485B000AF786039607B685B680D
:104DC000FB603B68FA685A60FB689A683B689A60C7
:104DD000FB689B683A685A60FB683A689A603B686F
:104DE0007A681A617B681B685A1C7B681A6000BF6E
:104DF0001437BD465DF8047B704780B485B000AFC2
:104E0000786039603B681B68BB60BB68B3F1FF3FEB
:104E100003D17B681B69FB600CE07B680833FB6097
:104E200002E0FB685B68FB60FB685B681A68BB6854
:104E30009A42F6D9FB685A683B685A603B685B68DF
:104E40003A689A603B68FA689A60FB683A685A6008
:104E50003B687A681A617B681B685A1C7B681A6019
:104E600000BF1437BD465DF8047B704780B485B041
:104E700000AF78607B681B69FB607B685B687A6861
:104E800092689A607B689B687A6852685A60FB688F
:104E90005A687B689A4203D17B689A68FB685A60BB
:104EA0007B6800221A61FB681B685A1EFB681A6047
:104EB000FB681B6818461437BD465DF8047B7047D5
:104EC00080B485B000AFF860B9607A60FB68043BDD
:104ED000FB60FB684FF080721A60FB68043BFB606C
:104EE000BB6823F00102FB681A60FB68043BFB60AF
:104EF0000C4AFB681A60FB68143BFB607A68FB682D
:104F00001A60FB68043BFB60FB686FF002021A60EA
:104F1000FB68203BFB60FB6818461437BD465DF814
:104F2000047B7047294F000880B485B000AF002390
:104F30007B60114B1B68B3F1FF3F09D04FF050036A
:104F400083F31188BFF36F8FBFF34F8FFB60FEE7D2
:104F50004FF0500383F31188BFF36F8FBFF34F8F70
:104F6000BB6000BF7B68002BFCD000BF1437BD4680
:104F70005DF8047B704700BF0C00002000000000BB
:104F8000074B19680868B0E8F04F80F30988BFF351
:104F90006F8F4FF0000080F311887047AFF30080EF
:104FA0001C2E002000BF00BF08480068006880F386
:104FB00008884FF0000080F3148862B661B6BFF332
:104FC0004F8FBFF36F8F00DF00BF00BF08ED00E021
:104FD00080B586B000AF444B1B68444A934209D168
:104FE0004FF0500383F31188BFF36F8FBFF34F8FE0
:104FF0003B61FEE73C4B1B683D4A934209D14FF0B1
:10500000500383F31188BFF36F8FBFF34F8FFB60A3
:10501000FEE7384B7B617B691B78DBB27B607B6989
:10502000FF221A707B691B78DBB2FB70FB78DBB266
:1050300003F05003DAB2304B1A70304B07221A607B
:1050400009E02E4B1B68013B2C4A1360FB78DBB256
:105050005B00DBB2FB70FB78DBB203F08003802BDC
:10506000EFD0264B1B68C3F10703042B09D04FF088
:10507000500383F31188BFF36F8FBFF34F8FBB6073
:10508000FEE71E4B1B681B021C4A13601B4B1B6870
:1050900003F4E063194A13607B68DAB27B691A7023
:1050A000174A174B1B6843F470031360144A144BE0
:1050B0001B6843F07043136000F0D6F8114B0022D8
:1050C0001A6000F0F5F8104A0F4B1B6843F040439C
:1050D0001360FFF769FF01F03BFCFFF725FF00239A
:1050E00018461837BD4680BD00ED00E071C20F4183
:1050F00070C20F4100E400E0EC060020F006002042
:1051000020ED00E00C00002034EF00E080B483B01C
:1051100000AF4FF0500383F31188BFF36F8FBFF3DD
:105120004F8F7B600E4B1B6801330D4A13600C4B95
:105130001B68012B0ED10B4B1B68DBB2002B09D077
:105140004FF0500383F31188BFF36F8FBFF34F8F7E
:105150003B60FEE700BF0C37BD465DF8047B70473F
:105160000C00002004ED00E080B483B000AF114BD0
:105170001B68002B09D14FF0500383F31188BFF354
:105180006F8FBFF34F8F7B60FEE70A4B1B68013BBD
:10519000084A1360074B1B68002B04D100233B60B7
:1051A0003B6883F3118800BF0C37BD465DF8047B74
:1051B000704700BF0C00002000000000000000004D
:1051C000EFF30980BFF36F8F154B1A681EF0100FB5
:1051D00008BF20ED108A20E9F04F10602DE909008A
:1051E0004FF0500080F31188BFF34F8FBFF36F8FE4
:1051F00001F0AEFB4FF0000080F3118809BC196884
:105200000868B0E8F04F1EF0100F08BFB0EC108A2D
:1052100080F30988BFF36F8F704700BFAFF3008042
:105220001C2E002000BF00BF80B582B000AF4FF041
:10523000500383F31188BFF36F8FBFF34F8F7B60F1
:1052400001F0C8FA0346002B03D0064B4FF0805202
:105250001A6000233B603B6883F3118800BF083766
:10526000BD4680BD04ED00E080B400AF0B4B0022D2
:105270001A600B4B00221A600A4A0B4B1B680B4941
:10528000A1FB03139B09013B1360044B07221A6027
:1052900000BFBD465DF8047B704700BF10E000E032
:1052A00018E000E014E000E010000020D34D621090
:1052B000DFF80C00016841F470010160704700BF25
:1052C00088ED00E080B485B000AFEFF30583FB60AC
:1052D000FB680F2B13D9164AFB6813441B78FB722B
:1052E000144B1B78FA7A9A4209D24FF0500383F399
:1052F0001188BFF36F8FBFF34F8F7B60FEE70E4BBC
:105300001B6803F4E0620D4B1B689A4209D94FF009
:10531000500383F31188BFF36F8FBFF34F8F3B6050
:10532000FEE700BF1437BD465DF8047B704700BF41
:10533000F0E300E0EC0600200CED00E0F0060020B9
:1053400080B58AB000AF78600023FB6101F088F976
:10535000574B1B68002B01D100F00CF9554B1A6814
:105360007B681340002B40F08C807B68002B1CD0A6
:1053700008227B6813447B607B6803F00703002BE3
:1053800013D07B6823F0070308337B607B6803F04E
:105390000703002B09D04FF0500383F31188BFF3AC
:1053A0006F8FBFF34F8F7B61FEE77B68002B68D068
:1053B000414B1B687A689A4263D8404B3B623F4B33
:1053C0001B687B6204E07B6A3B627B6A1B687B62D2
:1053D0007B6A5A687B689A4203D27B6A1B68002BFF
:1053E000F1D1334B1B687A6A9A424AD03B6A1B68F8
:1053F00008221344FB617B6A1A683B6A1A607B6A65
:105400005A687B68D21A08235B009A421ED97A6ACE
:105410007B681344BB61BB6903F00703002B09D011
:105420004FF0500383F31188BFF36F8FBFF34F8F9B
:105430003B61FEE77B6A5A687B68D21ABB695A6097
:105440007B6A7A685A60B86900F0F6F81A4B1A68F5
:105450007B6A5B68D31A184A1360174B1A68184B9B
:105460001B689A4203D2144B1B68154A13607B6A6F
:105470005A68104B1B681A437B6A5A607B6A002289
:105480001A6001F0FBF8FB6903F00703002B09D059
:105490004FF0500383F31188BFF36F8FBFF34F8F2B
:1054A000FB60FEE7FB6918462837BD4680BD00BF9C
:1054B0000C2E0020182E0020102E0020042E00207C
:1054C000142E002080B586B000AF78607B687B61C9
:1054D0007B68002B46D008235B427A6913447B61CA
:1054E0007B693B613B695A68204B1B681340002B6A
:1054F00009D14FF0500383F31188BFF36F8FBFF3CF
:105500004F8FFB60FEE73B691B68002B09D04FF013
:10551000500383F31188BFF36F8FBFF34F8FBB60CE
:10552000FEE73B695A68114B1B681340002B19D0EA
:105530003B691B68002B15D13B695A680B4B1B68F4
:10554000DB431A403B695A6001F08AF83B695A68AC
:10555000074B1B681344064A1360386900F06CF867
:1055600001F08CF800BF1837BD4680BD182E002012
:10557000102E002080B485B000AF42F21073BB60E3
:10558000274BFB60FB6803F00703002B0CD0FB6884
:105590000733FB60FB6823F00703FB60BA68FB6816
:1055A000D31A1F4A1344BB60FB687B601D4A7B68AB
:1055B00013601C4B00225A607A68BB681344FB607E
:1055C0000822FB689B1AFB60FB6823F00703FB6063
:1055D000FB68154A1360144B1B6800225A60124B7B
:1055E0001B6800221A607B683B603B68FA68D21A2D
:1055F0003B685A600C4B1A683B681A603B685B68F2
:105600000A4A13603B685B68094A1360094B4FF014
:1056100000421A6000BF1437BD465DF8047B704736
:10562000F4060020042E00200C2E0020142E002052
:10563000102E0020182E002080B485B000AF7860B6
:10564000284BFB6002E0FB681B68FB60FB681A6884
:105650007B689A42F7D3FB68BB60FB685B68BA68FB
:105660001A447B689A4208D1FB685A687B685B6879
:105670001A44FB685A60FB687B607B68BB607B6890
:105680005B68BA681A44FB681B689A4218D1FB68C9
:105690001A68154B1B689A420DD07B685A68FB68E4
:1056A0001B685B681A447B685A60FB681B681A6851
:1056B0007B681A6008E00C4B1A687B681A6003E08C
:1056C000FB681A687B681A60FA687B689A4202D0A5
:1056D000FB687A681A6000BF1437BD465DF8047B2A
:1056E000704700BF042E00200C2E002080B584B02F
:1056F00000AF786039607B68FB60FB68002B09D1E4
:105700004FF0500383F31188BFF36F8FBFF34F8FB8
:10571000BB60FEE7FFF7FAFCFB681A68FB68DB6B0F
:10572000F968096C01FB03F31A44FB685A60FB68D3
:1057300000229A63FB681A68FB689A60FB681A6823
:10574000FB68DB6B013BF968096C01FB03F31A444E
:10575000FB68DA60FB68FF2283F84420FB68FF22C5
:1057600083F845203B68002B14D1FB681B69002B94
:105770001AD0FB681033184601F094F90346002B49
:1057800012D00D4B4FF080521A60BFF34F8FBFF312
:105790006F8F09E0FB6810331846FFF7DDFAFB68EE
:1057A00024331846FFF7D8FAFFF7DEFC012318462A
:1057B0001037BD4680BD00BF04ED00E080B58EB05F
:1057C00002AFF860B9607A603B60FB68002B09D1DA
:1057D0004FF0500383F31188BFF36F8FBFF34F8FE8
:1057E000BB62FEE73B68002B09D14FF0500383F307
:1057F0001188BFF36F8FBFF34F8F7B62FEE77B682B
:10580000002B02D0BB68002B01D0012300E0002355
:10581000002B09D14FF0500383F31188BFF36F8F32
:10582000BFF34F8F3B62FEE77B68002B02D1BB6862
:10583000002B01D1012300E00023002B09D14FF000
:10584000500383F31188BFF36F8FBFF34F8FFB615A
:10585000FEE750237B617B69502B09D04FF050034A
:1058600083F31188BFF36F8FBFF34F8FBB61FEE7E8
:105870003B68FB62FB6A002B0DD0FB6A012283F8B8
:10588000462097F83820FB6A009313467A68B96877
:10589000F86800F042F8FB6A18463037BD4680BD14
:1058A00080B58AB002AFF860B9601346FB71FB683F
:1058B000002B09D14FF0500383F31188BFF36F8F92
:1058C000BFF34F8F3B61FEE7BB68002B02D1002383
:1058D000FB6104E0FB68BA6802FB03F3FB61FB6950
:1058E00050331846FFF72CFDB861BB69002B0FD071
:1058F000BB6950337B61BB69002283F84620FA798B
:10590000BB69009313467A69B968F86800F005F836
:10591000BB6918462037BD4680BD80B584B000AF56
:10592000F860B9607A60FB70BB68002B03D1BB697B
:10593000BA691A6002E0BB697A681A60BB69FA68E2
:10594000DA63BB69BA681A640121B869FFF7CEFE51
:10595000BB69FA7883F84C2000BF1037BD4680BD84
:1059600080B58EB000AFF860B9607A603B6000230C
:105970007B63FB683B633B6B002B09D14FF050030B
:1059800083F31188BFF36F8FBFF34F8FBB62FEE7C6
:10599000BB68002B03D13B6B1B6C002B01D1012397
:1059A00000E00023002B09D14FF0500383F311884E
:1059B000BFF36F8FBFF34F8F7B62FEE73B68022B15
:1059C00003D13B6BDB6B012B01D1012300E00023F2
:1059D000002B09D14FF0500383F31188BFF36F8F71
:1059E000BFF34F8F3B62FEE701F018FA0346002B2E
:1059F00002D17B68002B01D1012300E00023002BA2
:105A000009D14FF0500383F31188BFF36F8FBFF3B9
:105A10004F8FFB61FEE7FFF779FB3B6B9A6B3B6BAC
:105A2000DB6B9A4202D33B68022B29D13A68B968F2
:105A3000386B00F07CFAF8623B6B5B6A002B10D08D
:105A40003B6B2433184601F02DF80346002B13D08E
:105A50003F4B4FF080521A60BFF34F8FBFF36F8FF1
:105A60000AE0FB6A002B07D0394B4FF080521A60D6
:105A7000BFF34F8FBFF36F8FFFF776FB012363E018
:105A80007B68002B03D1FFF76FFB00235CE07B6B8F
:105A9000002B06D107F11403184601F065F8012325
:105AA0007B63FFF761FB00F0DBFDFFF72FFB3B6B38
:105AB00093F844305BB2B3F1FF3F03D13B6B00225C
:105AC00083F844203B6B93F845305BB2B3F1FF3F62
:105AD00003D13B6B002283F84520FFF745FB3A1DBD
